:1000000002C1000030C100002EC100002CC1000060
:100010002AC1000028C1000026C1000024C1000040
:1000200022C1000020C100001EC100001CC1000050
:100030001AC1000018C1000016C1000014C1000060
:1000400012C1000010C100000EC100000CC1000070
:100050000AC1000008C1000006C100009CC50000E4
:1000600002C1000062C5000037C50000FCC00000EE
:10007000FAC00000F8C00000F6C00000F4C00000A4
:10008000F2C00000F0C00000EEC00000ECC00000B4
:10009000EDC40000C2C40000E6C00000E4C00000DF
:1000A000E2C00000E0C00000DEC00000DCC00000D4
:1000B000DAC00000D8C00000D6C00000D4C00000E4
:1000C000D2C00000D0C00000CEC00000CCC00000F4
:1000D000CAC00000C8C00000C6C00000C4C0000004
:1000E000C2C0000000002100240027002A002D00CB
:1000F0003000330001010000040107010A01000083
:100100002200250028002B002E00310034000201BF
:100110000000050108010B0100002000230026005B
:1001200029002C002F00320000010000030106010D
:10013000090105050505070508080808020202026D
:100140000A0A080804040404010101010101010173
:100150000303030303030303040707070C0C0C0C3E
:100160000C0C0C0C02020202060606060606060627
:100170000B0B0B0B0B0B0B0B0102102020080810B4
:100180002040102040800201020108040201010207
:1001900004081020408080402010080402018004E0
:1001A000020180402010080402010804020101023B
:1001B0000408102040800102040810204080000044
:1001C0000A0B02090C0D0E080703040100000000D1
:1001D000000000000000000000000000000000001F
:1001E00000000000000000000000121110000000DC
:1001F00000000000000000000000000000000000FF
:1002000000000000150611241FBECFEFD1E2DEBFB3
:10021000CDBF00E00CBF12E0A0E0B2E0EEE8F4E1F8
:1002200000E00BBF02C007900D92A439B107D9F7C7
:1002300024E0A4E9B2E001C01D92A836B207E1F7BC
:1002400011E0C3E0D1E000E006C021970109802F52
:10025000FE010E940E0AC230D10780E00807A9F70C
:10026000B1D50C94450ACCCEAF92BF92CF92DF921B
:10027000EF92FF920F931F93CF93DF936C017B015B
:100280008B01040F151FEB015E01AE18BF08C017EC
:10029000D10759F06991D601ED91FC910190F0815F
:1002A000E02DC6011995892B79F7C501DF91CF9112
:1002B0001F910F91FF90EF90DF90CF90BF90AF9084
:1002C0000895FC01538D448D252F30E0842F90E05C
:1002D000821B930B541710F0CF9608950197089541
:1002E000FC01918D828D981761F0A28DAE0FBF2F0A
:1002F000B11D5D968C91928D9F5F9F73928F90E060
:1003000008958FEF9FEF0895FC01918D828D9817CE
:1003100031F0828DE80FF11D858D90E008958FEF0B
:100320009FEF0895FC01918D228D892F90E0805CD4
:100330009F4F821B91098F739927089583EA92E05A
:10034000F1DF21E0892B09F420E0822F089580E479
:1003500093E0E8DF21E0892B09F420E0822F089563
:10036000FC01A48DA80FB92FB11DA35ABF4F2C912A
:10037000848D90E001968F739927848FA689B78921
:100380002C93A089B1898C91837080648C93938D18
:10039000848D981306C00288F389E02D80818F7DBB
:1003A00080830895EF92FF920F931F93CF93DF9373
:1003B000EC0181E0888F9B8D8C8D98131AC0E889A1
:1003C000F989808185FF15C09FB7F894EE89FF8970
:1003D0006083E889F98980818370806480839FBF0E
:1003E00081E090E0DF91CF911F910F91FF90EF900E
:1003F0000895F62E0B8D10E00F5F1F4F0F7311271E
:10040000E02E8C8D8E110BC00FB607FCFACFE88959
:10041000F989808185FFF5CFCE01A2DFF2CFEB8D88
:10042000EC0FFD2FF11DE35AFF4FF0829FB7F894B8
:100430000B8FEA89FB8980818062D0CFCF93DF93D5
:10044000EC01888D8823B1F0AA89BB89E889F989F4
:100450008C9185FD03C0808186FD0CC00FB607FC22
:10046000F7CF8C9185FFF2CF808185FFEDCFCE0154
:1004700077DFEACFDF91CF91089580E090E0892B7C
:1004800021F065DF81110E94000080E090E0892B5F
:1004900021F054DF81110E94000080E090E0892B60
:1004A00049F080E090E0892B29F00E940000811142
:1004B0000E94000080E090E0892B49F080E090E00D
:1004C000892B29F00E94000081110C9400000895EE
:1004D0008150823108F059C0E82FF0E08827ED58AC
:1004E000FD4F8F4F9BC79302970285028B028F02AD
:1004F000C5029A02A002A402AA02AE02B202B80287
:10050000BC02C502C002C602CA02809180008F7779
:10051000809380000895809180008F7DF9CF809135
:100520008000877FF5CF84B58F7784BD089584B52B
:100530008F7DFBCF8091B0008F778093B0000895BE
:100540008091B0008F7DF9CF809190008F7780935C
:1005500090000895809190008F7DF9CF8091900058
:10056000877FF5CF8091A0008F778093A0000895BA
:100570008091A0008F7DF9CF8091A000877FF5CF7B
:10058000809120018F778093200108958091200130
:100590008F7DF9CF80912001877FF5CFCF93DF93B7
:1005A000E5ECF1E08491EFE7F1E0D491E9E3F1E0EB
:1005B000C491CC2399F081118BDFEC2FF0E0EE0F8A
:1005C000FF1FE85EFE4FA591B491EC91ED2381E011
:1005D00090E009F480E0DF91CF91089580E090E011
:1005E000FACF1F93CF93DF93282F30E0F901E25425
:1005F000FE4F8491F901E858FE4FD491F901EE5C69
:10060000FE4FC491CC23A1F0162F811161DFEC2F96
:10061000F0E0EE0FFF1FE250FF4FA591B4918FB7AE
:10062000F894EC91111108C0D095DE23DC938FBFB4
:10063000DF91CF911F910895DE2BF8CFCF93DF93F9
:1006400090E0FC01E858FE4F24918E5C9E4FFC0127
:1006500084918823D1F090E0880F991FFC01EC5120
:10066000FF4FA591B491FC01E250FF4FC591D49189
:1006700061110EC09FB7F8948C91E22FE0958E2304
:100680008C932881E223E8839FBFDF91CF91089567
:100690008FB7F894EC91E22BEC938FBFF6CF90914B
:1006A0007B00977F90937B008653806480937C00CF
:1006B00080917A00806480937A0080917A0086FD30
:1006C000FCCF809178009091790008953FB7F8941D
:1006D0008091990290919A02A0919B02B0919C0204
:1006E00026B5A89B05C02F3F19F00196A11DB11D8D
:1006F0003FBFBA2FA92F982F8827BC01CD01620FC9
:10070000711D811D911D42E0660F771F881F991F83
:100710004A95D1F708958F929F92AF92BF92CF9250
:10072000DF92EF92FF924B015C01D0DF6B017C0105
:10073000CDDF6C197D098E099F09683E73408105E4
:100740009105B0F321E0821A9108A108B10888EE62
:10075000C80E83E0D81EE11CF11C81149104A10491
:10076000B10431F7FF90EF90DF90CF90BF90AF9042
:100770009F908F900895089590E080E00895FB0188
:1007800001900020E9F73197AF01461B570BDC01C0
:10079000ED91FC910280F381E02D1994CF93DF93CA
:1007A000EC0160E08E811DDF61E08E811ADF60E088
:1007B0008E8117DF8BE891E00197F1F7DF91CF9100
:1007C0000895CF92DF92EF92FF920F931F93CF93F2
:1007D000DF936C017C0187E0E80EF11CD0E0C0E003
:1007E000062F10E0B8010C2E02C0759567950A948B
:1007F000E2F76170F70181917F01F3DE2196C43049
:10080000D10581F7C601DF91CF911F910F91FF9024
:10081000EF90DF90CF90C2CFCF92DF92EF92FF9216
:100820000F931F93CF93DF93EC01F62E642F8C81EF
:10083000D8DE8D818F3F11F060E0D3DE0F2D10E008
:100840008F8584FF23C06E0187E0C80ED11CF12C78
:10085000E12CB8010E2C02C0759567950A94E2F759
:100860006170F60181916F01BCDEFFEFEF1AFF0AA4
:1008700088E0E816F10469F7CE01DF91CF911F916E
:100880000F91FF90EF90DF90CF9088CFB80184E078
:10089000759567958A95E1F7CE0193DF6F2DCE01AF
:1008A000DF91CF911F910F91FF90EF90DF90CF904C
:1008B00088CF40E0682F8DED93E0AECF81E0F9DF87
:1008C0008BE39FE10197F1F70895EDEDF3E0808967
:1008D000982F9460908B8C60ECCFCF93DF93823015
:1008E00029F49091EC0398609093EC038093F003CB
:1008F0001092F10380E48093F20380E18093F3038C
:1009000080E58093F40361E08091E10397DE8091BC
:10091000E2038F3F11F061E091DE61E08091E3033B
:100920008DDECDEDD3E09E012D5D33408091EC0353
:1009300084FD0AC084E090E02196281739073CF432
:1009400061E08E817BDEEFCF88E090E0F5CF8BE336
:100950009DE00197F1F760E08091E10342DE60E005
:100960008091E3033EDE8091E2038F3F11F060E06F
:1009700038DE8091EC0384FD2BC063E08DED93E0C5
:1009800020DFCBE4D6E4CE010197F1F763E08DEDF3
:1009900093E017DF2197F1F763E08DED93E011DF2E
:1009A00083E592E00197F1F762E08DED93E009DFD6
:1009B0008091EC0380627DDF84E08093ED0385DF2E
:1009C0007DDF82E08093EE0386E0DF91CF9171CFEF
:1009D00080626FDF8BE496E40197F1F78091EC037E
:1009E000806267DF83E592E00197F1F78091EC0385
:1009F00080625FDFDDCF9091F003891710F08FEFF9
:100A0000890FE82FF0E0E352FC4F8489806851CFD2
:100A100041E002DF81E090E008951F920F920FB64F
:100A20000F9211240BB60F922F933F934F935F9326
:100A30006F937F938F939F93AF93BF93EF93FF93A6
:100A400083EA92E08DDCFF91EF91BF91AF919F918E
:100A50008F917F916F915F914F913F912F910F9067
:100A60000BBE0F900FBE0F901F9018951F920F9204
:100A70000FB60F9211240BB60F922F938F939F9363
:100A8000EF93FF93E091B302F091B4028081E09183
:100A9000B902F091BA0282FD1DC090818091BC0222
:100AA0008F5F8F732091BD02821741F0E091BC02ED
:100AB000F0E0ED55FD4F958F8093BC02FF91EF91D3
:100AC0009F918F912F910F900BBE0F900FBE0F90A3
:100AD0001F9018958081F2CF1F920F920FB60F9240
:100AE00011240BB60F922F933F934F935F936F9305
:100AF0007F938F939F93AF93BF93EF93FF9380E484
:100B000093E02EDCFF91EF91BF91AF919F918F9178
:100B10007F916F915F914F913F912F910F900BBEFD
:100B20000F900FBE0F901F9018951F920F920FB647
:100B30000F9211240BB60F922F938F939F93EF93E5
:100B4000FF93E0915003F09151038081E0915603AF
:100B5000F091570382FD1DC09081809159038F5FF2
:100B60008F7320915A03821741F0E0915903F0E00E
:100B7000E05CFC4F958F80935903FF91EF919F911B
:100B80008F912F910F900BBE0F900FBE0F901F9063
:100B900018958081F2CF1F920F920FB60F921124F9
:100BA0002F933F938F939F93AF93BF938091950221
:100BB00090919602A0919702B09198023091940280
:100BC00023E0230F2D3758F50196A11DB11D209369
:100BD00094028093950290939602A0939702B0930B
:100BE00098028091990290919A02A0919B02B091F3
:100BF0009C020196A11DB11D8093990290939A02C7
:100C0000A0939B02B0939C02BF91AF919F918F9153
:100C10003F912F910F900FBE0F901F90189526E8CF
:100C2000230F0296A11DB11DD2CFE3EAF2E0138299
:100C3000128248EE53E060E070E04483558366839F
:100C4000778384E092E0918380832DEC30E03587D8
:100C500024872CEC30E03787268728EC30E0318B76
:100C6000208B29EC30E0338B228B2AEC30E0358B63
:100C7000248B2EEC30E0378B268B118E128E138E48
:100C8000148EE0E4F3E0138212824483558366837A
:100C900077839183808385EC90E09587848784ECCB
:100CA00090E09787868780EC90E0918B808B81EC39
:100CB00090E0938B828B82EC90E0958B848B86EC1A
:100CC00090E0978B868B118E128E138E148EE5EF2B
:100CD000F3E04FEF5FEFBA01408351836283738388
:100CE00010861186128613868FEF99ECAAE9BBE372
:100CF000808B918BA28BB38B808F918FA28FB38FC0
:100D000080A391A3A2A3B3A380A791A7A2A7B3A7EF
:100D100080AB91ABA2ABB3AB40AF51AF62AF73AF9F
:100D20008FEF90E09093360480933504409339041C
:100D300050933A0460933B0470933C044093410405
:100D40005093420460934304709344041092490406
:100D500010924A0482E080935A0410925B0410922D
:100D60005C0410925D0410925E0410925F04109275
:100D70006004109261041092630410926204109255
:100D800065041092640410924B04EDEDF3E01382BD
:100D9000128286E192E0918380838DE084838FEFDD
:100DA00085838CE086838BE087838AE0808789E077
:100DB000818788E0828713861486158616861786B3
:100DC00081E08BCD789484B5826084BD84B58160E8
:100DD00084BD85B5826085BD85B5816085BD809106
:100DE0006E00816080936E0010928100809181007E
:100DF0008260809381008091810081608093810076
:100E0000809180008160809380008091B100846037
:100E10008093B1008091B00081608093B000809198
:100E20009100826080939100809191008160809315
:100E30009100809190008160809390008091A1004A
:100E400082608093A1008091A10081608093A100C5
:100E50008091A00081608093A00080912101826038
:100E600080932101809121018160809321018091F3
:100E7000200181608093200180917A0084608093BA
:100E80007A0080917A00826080937A0080917A0063
:100E9000816080937A0080917A00806880937A00E4
:100EA0001092C100E0915003F091510322E02083A1
:100EB000E0914C03F0914D031082E0914E03F091CC
:100EC0004F038FEC808310925803E0915403F0910C
:100ED000550396E09083E0915203F0915303808193
:100EE00080618083E0915203F09153038081886098
:100EF0008083E0915203F091530380818068808366
:100F0000E0915203F091530380818F7D8083E091C3
:100F1000B302F091B4022083E091AF02F091B002ED
:100F20001082E091B102F091B20287E680831092C4
:100F3000BB02E091B702F091B8029083E091B50254
:100F4000F091B602808180618083E091B502F091DA
:100F5000B602808188608083E091B502F091B6028C
:100F6000808180688083E091B502F091B602808133
:100F70008F7D808360ED77E080E090E0CCDB82E0E5
:100F8000ACDC9CDC61E086E059DB61E085E056DBAF
:100F900060E086E353DB60E087E350DB60E088E3FA
:100FA0004DDB80E028DD6EE172E08DED93E0E7DB64
:100FB0008CDC81E020DD1092A2021092A10210923E
:100FC000A00210929F0210929E0210929D020AE0CF
:100FD00010E06AE272E08DED93E0D1DB76DC86E32F
:100FE0005EDBC091A102D091A202C80FD91FD0939D
:100FF000A202C093A10287E352DBC0909F02D0906F
:10100000A002C80ED91ED092A002C0929F0288E30F
:1010100046DBE0909D02F0909E02E80EF91EF092F1
:101020009E02E0929D0268EC70E080E090E073DB4D
:101030000150110971F62AE030E0CE01B901DBD18F
:101040007093A2026093A102C601B901D4D170933A
:10105000A00260939F02C701B901CDD170939E0297
:1010600060939D022BDC81E0C6DC6CE272E08DEDCA
:1010700093E085DB93DA0197C1F461E086E0B1DAB1
:1010800061E085E0AEDA81E0B6DC68E372E08DED28
:1010900093E075DB1ADC82DA0197E9F360E086E021
:1010A000A0DA60E085E09DDA09DC86E3F8DAE0901A
:1010B000A102F090A2028E199F09181619060CF0D1
:1010C00098C086E3ECDA8E199F097C0187E3E7DAA2
:1010D00000919F021091A002801B910B1816190617
:1010E0000CF08CC087E3DBDA801B910B8C0188E36A
:1010F000D6DAC0919D02D0919E028C1B9D0B1816D2
:1011000019060CF080C088E3CADA8C1B9D0BEC0139
:101110009701D7018BD16B017C019801D80186D151
:10112000C60ED71EE81EF91E9E01DE017FD16C0D92
:101130007D1D8E1D9F1D9FD008D16CD06B327140DC
:101140000CF466C0BBDB80E056DC69E472E08DED38
:1011500093E015DB81E04FDC62E572E08DED93E01A
:101160000EDBB3DB61E086E03CDA61E085E039DA92
:101170006CE572E083EA92E002DB64E670E080E016
:1011800090E0C9DA67E672E083EA92E0F8DA63E8B1
:1011900072E083EA92E0F3DA64E670E080E090E0E7
:1011A000BADA66E872E083EA92E0E9DA63E872E0CC
:1011B00083EA92E0E4DA64E670E080E090E0ABDAA3
:1011C0006AE183EA92E0EED863E872E083EA92E0B3
:1011D000D6DA64E670E080E090E09DDA63E872E0E1
:1011E00083EA92E0CCDA68E873E180E090E093DA99
:1011F000FFCF86E354DAE81AF90A68CF87E34FDABB
:10120000081B190B74CF88E34ADAC81BD90B80CFAF
:1012100034D930CF04D06894B1118DC0089570D006
:1012200088F09F5790F0B92F9927B751A0F0D1F0CF
:10123000660F771F881F991F1AF0BA95C9F712C059
:10124000B13081F077D0B1E0089574C0672F782F66
:101250008827B85F39F0B93FCCF3869577956795C5
:10126000B395D9F73EF490958095709561957F4F31
:101270008F4F9F4F0895E89409C097FB3EF49095D7
:101280008095709561957F4F8F4F9F4F9923A9F05F
:10129000F92F96E9BB279395F695879577956795EE
:1012A000B795F111F8CFFAF4BB0F11F460FF1BC032
:1012B0006F5F7F4F8F4F9F4F16C0882311F096E9C5
:1012C00011C0772321F09EE8872F762F05C0662373
:1012D00071F096E8862F70E060E02AF09A95660F2C
:1012E000771F881FDAF7880F9695879597F90895E5
:1012F00057FD9058440F551F59F05F3F71F04795C7
:10130000880F97FB991F61F09F3F79F087950895AB
:10131000121613061406551FF2CF4695F1DF08C0CA
:10132000161617061806991FF1CF869571056105E7
:1013300008940895E894BB2766277727CB0197F98F
:10134000089511F40EF44DC03EC0DADFD0F39923B6
:10135000D9F3CEF39F57550B87FF46D00024A0E664
:1013600040EA900180585695979528F4805C660F66
:10137000771F881F20F026173707480730F4621BB5
:10138000730B840B202931294A2BA69517940794B7
:10139000202531254A2758F7660F771F881F20F030
:1013A00026173707480730F4620B730B840B200DA8
:1013B000311D411DA09581F7B901842F9158880FE7
:1013C0009695879508959F3F31F0915020F4879529
:1013D00077956795B795880F911D9695879597F99D
:1013E00008959FEF80EC089591505040660F771F4D
:1013F000881FD2F7089597FB072E16F4009406D0A5
:1014000077FD08D02ED007FC05D03EF4909581954D
:101410009F4F0895709561957F4F0895EE0FFF1FC0
:10142000881F8BBF0790F691E02D199405D03323C8
:1014300012F48A1B9B0B10C0A29FB001B39FC00186
:10144000A39F700D811D1124911DB29F700D811DF0
:101450001124911D0895F0DFB7FF0895821B930BAF
:101460000895AA1BBB1B51E107C0AA1FBB1FA617EB
:10147000B70710F0A61BB70B881F991F5A95A9F73D
:0E14800080959095BC01CD010895F894FFCFA2
:10148E0000000000D201340161011E0292017001C0
:10149E0084010000000008053401BC03BB03436156
:1014AE006C6962726174696E67002E0043616C69CB
:1014BE006272617465642100414C434F484F4C2069
:1014CE004445544543544544004163636964656E25
:1014DE0074004465746563746564210041542B4344
:1014EE004D47463D310D004154202B20434D47536F
:1014FE00203D20222B3931383234303330353530DF
:10150E003022000D0A0053617665204F757220530C
:04151E006F756C0079
:00000001FF
