:1000000002C1000030C100002EC100002CC1000060
:100010002AC1000028C1000026C1000024C1000040
:1000200022C1000020C100001EC100001CC1000050
:100030001AC1000018C1000016C1000014C1000060
:1000400012C1000010C100000EC100000CC1000070
:100050000AC1000008C1000006C10000D3C70000AB
:1000600002C1000099C700006EC70000FCC000007C
:10007000FAC00000F8C00000F6C00000F4C00000A4
:10008000F2C00000F0C00000EEC00000ECC00000B4
:1000900024C70000F9C60000E6C00000E4C000006C
:1000A000E2C00000E0C00000DEC00000DCC00000D4
:1000B000DAC00000D8C00000D6C00000D4C00000E4
:1000C000D2C00000D0C00000CEC00000CCC00000F4
:1000D000CAC00000C8C00000C6C00000C4C0000004
:1000E000C2C0000000002100240027002A002D00CB
:1000F0003000330001010000040107010A01000083
:100100002200250028002B002E00310034000201BF
:100110000000050108010B0100002000230026005B
:1001200029002C002F00320000010000030106010D
:10013000090105050505070508080808020202026D
:100140000A0A080804040404010101010101010173
:100150000303030303030303040707070C0C0C0C3E
:100160000C0C0C0C02020202060606060606060627
:100170000B0B0B0B0B0B0B0B0102102020080810B4
:100180002040102040800201020108040201010207
:1001900004081020408080402010080402018004E0
:1001A000020180402010080402010804020101023B
:1001B0000408102040800102040810204080000044
:1001C0000A0B02090C0D0E080703040100000000D1
:1001D000000000000000000000000000000000001F
:1001E00000000000000000000000121110000000DC
:1001F00000000000000000000000000000000000FF
:10020000000000004C0811241FBECFEFD1E2DEBF7A
:10021000CDBF00E00CBF12E0A0E0B2E0EAE9F3E2FB
:1002200000E00BBF02C007900D92A63CB107D9F7C2
:1002300024E0A6ECB2E001C01D92AA39B207E1F7B2
:1002400011E0C3E0D1E000E006C021970109802F52
:10025000FE010E948411C230D10780E00807A9F78F
:10026000E8D70C94CB11CCCE0F931F93CF93DF9391
:10027000C0917D04EEE7F4E0CD3211F0EDE7F4E05B
:100280008F0120E030E0A901D801DD918D0180EDE2
:100290008D0F8A3090F4AAE0B0E00E94A7112D2FB4
:1002A000DD0F330B440B550B260F371F481F591F0B
:1002B0002053310941095109E7CFA4E6B0E00E947B
:1002C000A711AB01BC01DF01819190ED980F9A302D
:1002D000D0F38E3259F511968C91119790ED980FBD
:1002E0009A3020F5082E000C990BC0972AE0289F21
:1002F0008001299F100D1124012E000C220B330BBD
:10030000400F511F621F731F12968C9190ED980F32
:100310009A3060F4082E000C990BC097092E000C3F
:10032000AA0BBB0B480F591F6A1F7B1FCD3239F434
:1003300070956095509541955F4F6F4F7F4FCB0102
:10034000BA01DF91CF911F910F9108954F925F9263
:100350006F927F928F929F92AF92BF92CF92DF92D5
:10036000EF92FF921F93CF93DF93CDE7D4E0FE018E
:10037000C12CD12C7601119180ED810F8A30A8F427
:10038000AAE0B0E0A70196010E94A711C12E110FAB
:10039000DD08EE08FF08C60ED71EE81EF91E80E332
:1003A000C81AD108E108F108E6CFC701B60124E672
:1003B00030E040E050E00E9462119B01AC0160EA35
:1003C00076E881E090E00E9440114B015C019E01C3
:1003D000899190ED980F9A30D0F38E3221F5E90192
:1003E000219680E1482E87E2582E612C712CA9912C
:1003F00080ED8A0F8A30B8F40A2E000CBB0BD09720
:10040000A30192010E94B111860E971EA81EB91E6B
:10041000C301B2012AE030E040E050E00E946211E6
:1004200029013A01E4CFC701B60124E630E040E0FB
:1004300050E00E94621160E472E48FE090E00E945C
:1004400040116B017C01C501B4016D5F7F4F8F4F7F
:100450009F4F26E030E040E050E00E946211C7016B
:10046000B601620F731F841F951FDF91CF911F91FB
:10047000FF90EF90DF90CF90BF90AF909F908F90C4
:100480007F906F905F904F900895AF92BF92CF9200
:10049000DF92EF92FF920F931F93CF93DF936C0144
:1004A0007B018B01040F151FEB015E01AE18BF0825
:1004B000C017D10759F06991D601ED91FC910190D7
:1004C000F081E02DC6011995892B79F7C501DF91DF
:1004D000CF911F910F91FF90EF90DF90CF90BF9041
:1004E000AF900895FC01538D448D252F30E0842F6B
:1004F00090E0821B930B541710F0CF96089501974C
:100500000895FC01918D828D981761F0A28DAE0F38
:10051000BF2FB11D5D968C91928D9F5F9F73928FBF
:1005200090E008958FEF9FEF0895FC01918D828DEB
:10053000981731F0828DE80FF11D858D90E00895B8
:100540008FEF9FEF0895FC01918D228D892F90E010
:10055000805C9F4F821B91098F739927089585EDC9
:1005600092E0F1DF21E0892B09F420E0822F089549
:1005700082E793E0E8DF21E0892B09F420E0822F75
:100580000895FC01A48DA80FB92FB11DA35ABF4F28
:100590002C91848D90E001968F739927848FA68982
:1005A000B7892C93A089B1898C91837080648C93D6
:1005B000938D848D981306C00288F389E02D808185
:1005C0008F7D80830895EF92FF920F931F93CF93B7
:1005D000DF93EC0181E0888F9B8D8C8D98131AC07E
:1005E000E889F989808185FF15C09FB7F894EE8965
:1005F000FF896083E889F9898081837080648083C2
:100600009FBF81E090E0DF91CF911F910F91FF900C
:10061000EF900895F62E0B8D10E00F5F1F4F0F73B4
:100620001127E02E8C8D8E110BC00FB607FCFACF70
:10063000E889F989808185FFF5CFCE01A2DFF2CF6D
:10064000EB8DEC0FFD2FF11DE35AFF4FF0829FB7AA
:10065000F8940B8FEA89FB8980818062D0CFCF9399
:10066000DF93EC01888D8823B1F0AA89BB89E889E2
:10067000F9898C9185FD03C0808186FD0CC00FB681
:1006800007FCF7CF8C9185FFF2CF808185FFEDCFFE
:10069000CE0177DFEACFDF91CF91089580E090E03F
:1006A000892B21F065DF81110E94000080E090E03D
:1006B000892B21F054DF81110E94000080E090E03E
:1006C000892B49F080E090E0892B29F00E940000FE
:1006D00081110E94000080E090E0892B49F080E0C9
:1006E00090E0892B29F00E94000081110C940000F9
:1006F00008958150823108F05AC0E82FF0E0882731
:10070000EB57FC4F8F4F0C948411A503A90397035B
:100710009D03A103D703AC03B203B603BC03C0031C
:10072000C403CA03CE03D703D203D803DC038091EA
:1007300080008F77809380000895809180008F7D66
:10074000F9CF80918000877FF5CF84B58F7784BD06
:10075000089584B58F7DFBCF8091B0008F77809313
:10076000B00008958091B0008F7DF9CF8091900006
:100770008F77809390000895809190008F7DF9CFBE
:1007800080919000877FF5CF8091A0008F77809334
:10079000A00008958091A0008F7DF9CF8091A000E6
:1007A000877FF5CF809120018F7780932001089576
:1007B000809120018F7DF9CF80912001877FF5CF37
:1007C000CF93DF93E5ECF1E08491EFE7F1E0D49192
:1007D000E9E3F1E0C491CC2399F081118ADFEC2F99
:1007E000F0E0EE0FFF1FE85EFE4FA591B491EC9193
:1007F000ED2381E090E009F480E0DF91CF9108954E
:1008000080E090E0FACF1F93CF93DF93282F30E062
:10081000F901E254FE4F8491F901E858FE4FD4915A
:10082000F901EE5CFE4FC491CC23A1F0162F81118B
:1008300060DFEC2FF0E0EE0FFF1FE250FF4FA591BD
:10084000B4918FB7F894EC91111108C0D095DE23C4
:10085000DC938FBFDF91CF911F910895DE2BF8CFEE
:10086000CF93DF9390E0FC01E858FE4F24918E5C1B
:100870009E4FFC0184918823D1F090E0880F991F4E
:10088000FC01EC51FF4FA591B491FC01E250FF4FE8
:10089000C591D49161110EC09FB7F8948C91E22F4D
:1008A000E0958E238C932881E223E8839FBFDF911C
:1008B000CF9108958FB7F894EC91E22BEC938FBF12
:1008C000F6CF90917B00977F90937B008653806456
:1008D00080937C0080917A00806480937A0080917C
:1008E0007A0086FDFCCF8091780090917900089580
:1008F0003FB7F8948091CB029091CC02A091CD02A9
:10090000B091CE0226B5A89B05C02F3F19F00196E5
:10091000A11DB11D3FBFBA2FA92F982F8827BC0159
:10092000CD01620F711D811D911D42E0660F771F81
:10093000881F991F4A95D1F708958F929F92AF9281
:10094000BF92CF92DF92EF92FF924B015C01D0DF1A
:100950006B017C01CDDF6C197D098E099F09683E12
:10096000734081059105B0F321E0821A9108A10836
:10097000B10888EEC80E83E0D81EE11CF11C81147A
:100980009104A104B10431F7FF90EF90DF90CF9074
:10099000BF90AF909F908F9008952FB7F89460917B
:1009A000C7027091C8028091C9029091CA022FBFFC
:1009B0000895089590E080E00895CF93DF93EC01CF
:1009C00060E08E8120DF61E08E811DDF60E08E813E
:1009D0001ADF8BE891E00197F1F7DF91CF9108954D
:1009E000CF92DF92EF92FF920F931F93CF93DF93FB
:1009F0006C017C0187E0E80EF11CD0E0C0E0062F1E
:100A000010E0B8010C2E02C0759567950A94E2F7C4
:100A10006170F70181917F01F6DE2196C430D10526
:100A200081F7C601DF91CF911F910F91FF90EF9059
:100A3000DF90CF90C2CFCF92DF92EF92FF920F93D1
:100A40001F93CF93DF93EC01F62E642F8C81DBDEB6
:100A50008D818F3F11F060E0D6DE0F2D10E08F8585
:100A600084FF23C06E0187E0C80ED11CF12CE12C5D
:100A7000B8010E2C02C0759567950A94E2F7617073
:100A8000F60181916F01BFDEFFEFEF1AFF0A88E0E8
:100A9000E816F10469F7CE01DF91CF911F910F9114
:100AA000FF90EF90DF90CF9088CFB80184E07595EC
:100AB00067958A95E1F7CE0193DF6F2DCE01DF9127
:100AC000CF911F910F91FF90EF90DF90CF9088CF43
:100AD00040E0682F8FE094E0AECF81E0F9DF8BE358
:100AE0009FE10197F1F70895EFE0F4E08089982FF6
:100AF0009460908B8C60ECCFCF93DF93823029F49D
:100B000090911E04986090931E048093220410928A
:100B1000230480E48093240480E18093250480E50D
:100B20008093260461E0809113049ADE809114047E
:100B30008F3F11F061E094DE61E08091150490DE5A
:100B4000CFE0D4E09E012F50344080911E0484FDFC
:100B50000AC084E090E02196281739073CF461E050
:100B60008E817EDEEFCF88E090E0F5CF8BE39DE0D5
:100B70000197F1F760E08091130445DE60E0809119
:100B8000150441DE809114048F3F11F060E03BDEDC
:100B900080911E0484FD2BC063E08FE094E020DF91
:100BA000CBE4D6E4CE010197F1F763E08FE094E067
:100BB00017DF2197F1F763E08FE094E011DF83E521
:100BC00092E00197F1F762E08FE094E009DF809115
:100BD0001E0480627DDF84E080931F0485DF7DDF5B
:100BE00082E08093200486E0DF91CF9171CF806214
:100BF0006FDF8BE496E40197F1F780911E04806229
:100C000067DF83E592E00197F1F780911E0480622F
:100C10005FDFDDCF90912204891710F08FEF890FED
:100C2000E82FF0E0E15FFB4F8489806851CF41E01D
:100C300002DF81E090E00895FB0101900020E9F7D8
:100C40003197AF01461B570BDC01ED91FC910280FF
:100C5000F381E02D19948F929F92AF92BF920F93E0
:100C60001F93CF93DF93CDB7DEB7A1970FB6F8945C
:100C7000DEBF0FBECDBF19A2423008F44AE08E019C
:100C80000F5D1F4F842E912CB12CA12CA501940136
:100C90000E946211E62FB901CA01EA30FCF4E05D5E
:100CA000D801EE938D01232B242B252B79F790E08F
:100CB00080E0109721F0BD0185ED92E0BDDFA196A7
:100CC0000FB6F894DEBF0FBECDBFDF91CF911F915D
:100CD0000F91BF90AF909F908F900895E95CE0CF07
:100CE0004F925F926F927F928F929F92AF92BF923C
:100CF000CF92DF92EF92FF920F931F93CF936B01EE
:100D00007C01742EAC019B010E9427116EE172E000
:100D1000811126C046015701E894B7F82FEF3FEF45
:100D20004FE75FE7C501B4010E94271181110CC094
:100D30002FEF3FEF4FE75FE7C501B4010E942F0F90
:100D400062E272E0181664F02FEF3FEF4FE75FE4C6
:100D5000C701B6010E947E101816A4F466E272E084
:100D600085ED92E0CF911F910F91FF90EF90DF9072
:100D7000CF90BF90AF909F908F907F906F905F903B
:100D80004F905ACF2FEF3FEF4FE75FECC701B6010F
:100D90000E942F0F87FDE2CF20E030E0A901C701BC
:100DA000B6010E942F0F10E000E087FF09C06DE23E
:100DB00085ED92E008DC8C01F7FAF094F7F8F094F6
:100DC000C0E060E070E080E09FE37C1641F020E04E
:100DD00030E040E251E40E94330FCF5FF6CFA7012D
:100DE0009601D9D72B013C010E94A00F4B015C0159
:100DF0004AE031DF7C01E00EF11ECC23A1F1C501F8
:100E0000B4010E94CC0F9B01AC01C301B201C2D757
:100E10004B015C016EE285ED92E0D5DBE80EF91E38
:100E2000C15008F120E030E040E251E4C501B401D6
:100E30000E9482102B013C010E94A00F4B01B12C9B
:100E4000A12C4AE0C501B40106DFE80EF91EC50178
:100E5000B4010E94CC0F9B01AC01C301B2019AD72F
:100E60004B015C01DDCFC701CF911F910F91FF9026
:100E7000EF90DF90CF90BF90AF909F908F907F903A
:100E80006F905F904F9008951F920F920FB60F9240
:100E900011240BB60F922F933F934F935F936F9351
:100EA0007F938F939F93AF93BF93EF93FF9385EDC2
:100EB00092E067DBFF91EF91BF91AF919F918F918E
:100EC0007F916F915F914F913F912F910F900BBE4A
:100ED0000F900FBE0F901F9018951F920F920FB694
:100EE0000F9211240BB60F922F938F939F93EF9332
:100EF000FF93E091E502F091E6028081E091EB0240
:100F0000F091EC0282FD1DC090818091EE028F5F16
:100F10008F732091EF02821741F0E091EE02F0E032
:100F2000EB52FD4F958F8093EE02FF91EF919F91D1
:100F30008F912F910F900BBE0F900FBE0F901F90AF
:100F400018958081F2CF1F920F920FB60F92112445
:100F50000BB60F922F933F934F935F936F937F93B3
:100F60008F939F93AF93BF93EF93FF9382E793E0A9
:100F700008DBFF91EF91BF91AF919F918F917F918E
:100F80006F915F914F913F912F910F900BBE0F90FA
:100F90000FBE0F901F9018951F920F920FB60F92D1
:100FA00011240BB60F922F938F939F93EF93FF9380
:100FB000E0918203F09183038081E0918803F091B6
:100FC000890382FD1DC0908180918B038F5F8F7399
:100FD00020918C03821741F0E0918B03F0E0EE58F2
:100FE000FC4F958F80938B03FF91EF919F918F9191
:100FF0002F910F900BBE0F900FBE0F901F90189562
:101000008081F2CF1F920F920FB60F9211242F936F
:101010003F938F939F93AF93BF938091C70290911B
:10102000C802A091C902B091CA023091C60223E061
:10103000230F2D3758F50196A11DB11D2093C6022F
:101040008093C7029093C802A093C902B093CA02CA
:101050008091CB029091CC02A091CD02B091CE02B2
:101060000196A11DB11D8093CB029093CC02A09359
:10107000CD02B093CE02BF91AF919F918F913F91DE
:101080002F910F900FBE0F901F90189526E8230FF9
:101090000296A11DB11DD2CFE5EDF2E013821282BE
:1010A00048EE53E060E070E04483558366837783C5
:1010B00084E092E0918380832DEC30E035872487B3
:1010C0002CEC30E03787268728EC30E0318B208B02
:1010D00029EC30E0338B228B2AEC30E0358B248BEB
:1010E0002EEC30E0378B268B118E128E138E148EE1
:1010F000E2E7F3E0138212824483558366837783A9
:101100009183808385EC90E09587848784EC90E0E0
:101110009787868780EC90E0918B808B81EC90E0C4
:10112000938B828B82EC90E0958B848B86EC90E0A5
:10113000978B868B118E128E138E148EE7E2F4E05D
:101140004FEF5FEFBA014083518362837383108650
:101150001186128613868FEF99ECAAE9BBE3808B88
:10116000918BA28BB38B808F918FA28FB38F80A333
:1011700091A3A2A3B3A380A791A7A2A7B3A780AB73
:1011800091ABA2ABB3AB40AF51AF62AF73AF8FEFD8
:1011900090E0909368048093670440936B045093AD
:1011A0006C0460936D0470936E04409373045093C9
:1011B0007404609375047093760410927B0410920B
:1011C0007C0482E080938C0410928D0410928E0433
:1011D00010928F0410929004109291041092920435
:1011E0001092930410929504109294041092970414
:1011F0001092960410927D04EFE0F4E013821282C4
:1012000086E192E0918380838DE084838FEF8583F4
:101210008CE086838BE087838AE0808789E0818702
:1012200088E082871386148615861686178681E0E5
:1012300063CC789484B5826084BD84B5816084BDBC
:1012400085B5826085BD85B5816085BD80916E0064
:10125000816080936E001092810080918100826095
:1012600080938100809181008160809381008091D2
:1012700080008160809380008091B10084608093C1
:10128000B1008091B00081608093B00080919100A6
:1012900082608093910080919100816080939100A1
:1012A000809190008160809390008091A100826085
:1012B0008093A1008091A10081608093A100809122
:1012C000A00081608093A0008091210182608093C2
:1012D0002101809121018160809321018091200171
:1012E00081608093200180917A00846080937A00ED
:1012F00080917A00826080937A0080917A00816088
:1013000080937A0080917A00806880937A001092AE
:10131000C100E0918203F091830322E02083E091F9
:101320007E03F0917F031082E0918003F0918103AE
:101330008FEC808310928A03E0918603F0918703FB
:1013400096E09083E0918403F09185038081806131
:101350008083E0918403F09185038081886080839D
:10136000E0918403F0918503808180688083E0911F
:101370008403F091850380818F7D8083E091E50275
:10138000F091E6022083E091E102F091E202108206
:10139000E091E302F091E40287E680831092ED028F
:1013A000E091E902F091EA029083E091E702F09186
:1013B000E802808180618083E091E702F091E80299
:1013C000808188608083E091E702F091E80280816B
:1013D00080688083E091E702F091E80280818F7D50
:1013E000808360ED77E080E090E0A7DA82E084DB44
:1013F00074DB61E086E034DA61E085E031DA60E0F8
:1014000086E32EDA60E087E32BDA60E088E328DA0F
:1014100080E000DC6AE272E08FE094E00DDC64DBE7
:1014200081E0F8DB1092D4021092D3021092D20223
:101430001092D1021092D0021092CF029AE0492E5F
:10144000512C66E372E08FE094E0F6DB4DDB86E33F
:1014500038DA0091D3021091D402080F191F1093AB
:10146000D4020093D30287E32CDAC091D102D09149
:10147000D202C80FD91FD093D202C093D10288E301
:1014800020DA6090CF027090D002680E791E7092C0
:10149000D0026092CF0268EC70E080E090E04DDA1C
:1014A00021E0421A510869F62AE030E0C801B9018A
:1014B000F6D67093D4026093D302CE01B901EFD671
:1014C0007093D2026093D102C301B901E8D6709340
:1014D000D0026093CF0201DB81E09CDB68E372E025
:1014E0008FE094E0A9DB6CD90197C1F461E086E05C
:1014F0008AD961E085E087D981E08CDB64E472E021
:101500008FE094E099DBF0DA5BD90197E9F360E0D2
:1015100086E079D960E085E076D9DFDA86E3D1D953
:101520000091D3021091D402801B910B181619065A
:101530000CF016C186E3C5D9801B910B8C0187E3A3
:10154000C0D96090D1027090D202861997091816FE
:1015500019060CF00AC187E3B4D9861997093C0132
:1015600088E3AFD9C091CF02D091D0028C1B9D0BE4
:10157000181619060CF0FEC088E3A3D98C1B9D0B2E
:10158000EC019801D801C8D61B012C019301D301AD
:10159000C3D632012101460E571E681E791E9E01D8
:1015A000DE01BAD6640D751D861D971DF5D411D6C2
:1015B000C2D46B3271400CF4BFC38FDA80E02ADBF7
:1015C00065E572E08FE094E037DB81E023DB6EE5D8
:1015D00072E08FE094E030DB87DA61E086E013D9D7
:1015E00061E085E010D9D9D92B013C0110E002E07F
:1015F00022242394D2D96419750986099709683E73
:1016000073408105910508F496C1112309F43CC08B
:10161000C0903704D0903804E0903904F0903A0438
:1016200080903F0490904004A0904104B090420408
:101630008091730490917404A0917504B091760424
:101640008F3F9F4FAF4FBF4F09F0A7D9FFEFCF1686
:10165000F9ECDF06FAE9EF06FBE3FF0609F463C3E2
:10166000C701B6019BD420E034E244E759E4FBD340
:101670006B017C01C501B40191D420E034E244E760
:1016800059E4F1D34B015C0164E772E085ED92E02F
:10169000D3DA64E670E080E090E04FD96FE772E063
:1016A00085ED92E0C9DA6BE972E085ED92E0C4DA8B
:1016B00064E670E080E090E040D96EE972E085ED8C
:1016C00092E0BADA6BE972E085ED92E0B5DA6CEAA5
:1016D00072E085ED92E0B0DA20E030E04AE754E4D1
:1016E000C701B601BCD3811103C0C12CD12C760136
:1016F00046E0C701B601F4DA68EB72E085ED92E0EE
:101700009BDA20E030E04AE754E4C501B401A7D3F6
:10171000811103C0812C912C540146E0C501B40114
:10172000DFDA64E670E080E090E007D96AE185EDF9
:1017300092E00E94E3026BE972E085ED92E07CDAD0
:1017400064E670E080E090E0F8D86BE972E085ED47
:1017500092E072DA68E873E180E090E0EED8FFCFC3
:1017600086E3AFD8081B190BEACE87E3AAD8681A1C
:10177000790AF6CE88E3A5D8C81BD90B02CFCA32A6
:1017800009F405C1CC3209F0BAC280917B048C27E0
:1017900080937B04FCC080918D04F0E0E358FB4F04
:1017A0001082D0917C04DD2309F46AC120917D046C
:1017B000822F022E000C990B3FEB320F363008F0CF
:1017C000EBC0C7978295807F90917E04292F092EC8
:1017D000000C330B4FEB490F463008F0E5C02753A0
:1017E0003109820F90917B04891340C1D0918F04FD
:1017F000DD2309F4CFC08091940490919504019663
:10180000909395048093940480916F049091700458
:10181000A0917104B091720480936B0490936C0456
:10182000A0936D04B0936E04809177049091780436
:10183000A0917904B0917A04809373049093740416
:10184000A0937504B093760480918C04882309F4E6
:10185000B4C0813009F060C080912B0490912C04B9
:10186000A0912D04B0912E04809327049093280416
:10187000A0932904B0932A048091330490913404F6
:10188000A0913504B091360480932F0490933004D6
:10189000A0933104B093320480913B0490913C04B6
:1018A000A0913D04B0913E04809337049093380496
:1018B000A0933904B0933A04809143049091440476
:1018C000A0914504B091460480933F049093400456
:1018D000A0934104B0934204809153049091540426
:1018E000A0915504B091560480934F0490935004F6
:1018F000A0935104B093520480915B0490915C04D6
:10190000A0915D04B0915E048093570490935804B5
:10191000A0935904B0935A0480918D048F5F8093F3
:101920008D0410928E0481E0CA3209F080E0809329
:101930007C04D1111D2F82E793E00E94A302892B22
:1019400009F458CE82E793E00E948102C82F80916B
:10195000900490919104A0919204B0919304019607
:10196000A11DB11D8093900490939104A0939204C3
:10197000B0939304C43209F4B5C1E0918E04C5322A
:101980000CF0FDCECA3019F0CD3009F0B8C1EF30FF
:1019900008F401CFD0E0C0CF2156263018F4875587
:1019A000910910CFC0970ECF9156963018F4275555
:1019B000310917CF2053310914CF80914B049091F6
:1019C0004C04A0914D04B0914E0480934704909331
:1019D0004804A0934904B0934A0480912B04909149
:1019E0002C04A0912D04B0912E0480932704909391
:1019F0002804A0932904B0932A0480913B04909179
:101A00003C04A0913D04B0913E0480933704909330
:101A10003804A0933904B0933A0480914304909120
:101A20004404A0914504B091460480933F049093F0
:101A30004004A0934104B0934204809169049091C2
:101A40006A04909368048093670480916304909182
:101A50006404A0916504B091660480935F04909340
:101A60006004A0936104B093620456CF8091960401
:101A700090919704019690939704809396048ACF4F
:101A800081111CC04DE754E0A8E6B2E0CA01FC0198
:101A90002191CF01222309F452C13D912317B9F3BB
:101AA000AEE6B2E0FA018191AF01882309F44AC1A0
:101AB0009D918917B9F300938C042ECFE0918C048B
:101AC000E23009F467CF90917D04992309F462CF45
:101AD00020E2E29FF0011124E82B3197E932F10571
:101AE00008F01ACF8827E958F24F8F4F0DC4BC0D6C
:101AF000D70DEC0D070E120E4C0E530E5C0E670E3A
:101B00008C0C8C0C8C0C8C0C8C0C8C0C8C0C8C0C15
:101B10008C0C8C0C8C0C8C0C8C0C8C0C8C0C8C0C05
:101B20008C0C8C0C8C0C8C0C8C0C8C0C8C0CBC0DC4
:101B3000D10DD70DEC0D070E120E2D0E380EA00D87
:101B4000EDE7F4E020E030E0A901319080ED830D75
:101B50008A3008F098C0AAE0B0E0F9D3232D330C06
:101B6000330B440B550B260F371F481F591F2053AB
:101B7000310941095109E9CF0E94340160932B04D6
:101B800070932C0480932D0490932E040E94CD0416
:101B900060936F0470937004809371049093720447
:101BA000BBCE81E0913409F47BC080E079C00E9413
:101BB000A60160933B0470933C0480933D04909392
:101BC0003E040E94CD046093770470937804809360
:101BD000790490937A04A0CE933509F0DBCE8091FE
:101BE0003B0490913C04A0913D04B0913E04B0951B
:101BF000A095909581959F4FAF4FBF4F80933B0429
:101C000090933C04A0933D04B0933E0485CE0E9483
:101C1000A601609343047093440480934504909319
:101C200046047ACE973509F0B5CE80914304909161
:101C30004404A0914504B0914604B095A0959095B8
:101C400081959F4FAF4FBF4F8093430490934404BF
:101C5000A0934504B09346045FCE0E943401609384
:101C6000530470935404809355049093560454CEB7
:101C70000E94340160935B0470935C0480935D0464
:101C800090935E0449CE2093330430933404409300
:101C900035045093360440CE81E091330CF485CF67
:101CA00080938F0439CE8DE794E04FD0992790939D
:101CB0006A048093690430CE0E9434016093630407
:101CC00070936404809365049093660425CE0E940B
:101CD000340160934B0470934C0480934D049093B3
:101CE0004E041ACE10928E0410928D0410927B0432
:101CF00000938C0410927C0410928F041CCEEE3062
:101D000040F481E08E0F80938E04F0E0E358FB4FA7
:101D1000C08380917C0481110ECE80917B04C82702
:101D2000C0937B0408CE812C912C8AE7A82E84E4F2
:101D3000B82E75016401A8CC0E944E03D4CB20922A
:101D40008C04EACD10928C04E7CDFC0188279927FA
:101D5000E89421912032E9F3293010F02E30C8F3B5
:101D60002B3239F02D3231F4689403C00BD0820F3E
:101D7000911D219120532A30C8F31EF4909581952E
:101D80009F4F08957AE0979F902D879F802D910D0A
:101D9000112408955058BB27AA270ED075C166D1CB
:101DA00030F06BD120F031F49F3F11F41EF45BC191
:101DB0000EF4E095E7FB51C1E92F77D180F3BA1714
:101DC000620773078407950718F071F49EF58FC1B9
:101DD0000EF4E0950B2EBA2FA02D0B01B901900146
:101DE0000C01CA01A0011124FF27591B99F0593F8A
:101DF00050F4503E68F11A16F040A22F232F342FD2
:101E00004427585FF3CF469537952795A795F0401F
:101E10005395C9F77EF41F16BA0B620B730B840B34
:101E2000BAF09150A1F0FF0FBB1F661F771F881FEC
:101E3000C2F70EC0BA0F621F731F841F48F4879544
:101E400077956795B795F7959E3F08F0B3CF939533
:101E5000880F08F09927EE0F979587950895D9D0A8
:101E600008F481E008950CD00FC107D140F0FED0F6
:101E700030F021F45F3F19F0F0C0511139C1F3C0C7
:101E800014D198F39923C9F35523B1F3951B550B3E
:101E9000BB27AA2762177307840738F09F5F5F4F3D
:101EA000220F331F441FAA1FA9F333D00E2E3AF07E
:101EB000E0E830D091505040E695001CCAF729D098
:101EC000FE2F27D0660F771F881FBB1F26173707E7
:101ED0004807AB07B0E809F0BB0B802DBF01FF2717
:101EE00093585F4F2AF09E3F510568F0B6C000C17D
:101EF0005F3FECF3983EDCF3869577956795B79551
:101F0000F7959F5FC9F7880F911D9695879597F96B
:101F10000895E1E0660F771F881FBB1F62177307E4
:101F20008407BA0720F0621B730B840BBA0BEE1FF9
:101F300088F7E095089504D06894B111D9C0089548
:101F4000BCD088F09F5790F0B92F9927B751A0F0D7
:101F5000D1F0660F771F881F991F1AF0BA95C9F73D
:101F600012C0B13081F0C3D0B1E00895C0C0672F76
:101F7000782F8827B85F39F0B93FCCF386957795ED
:101F80006795B395D9F73EF49095809570956195D6
:101F90007F4F8F4F9F4F0895E89409C097FB3EF401
:101FA00090958095709561957F4F8F4F9F4F9923A6
:101FB000A9F0F92F96E9BB279395F6958795779524
:101FC0006795B795F111F8CFFAF4BB0F11F460FFE4
:101FD0001BC06F5F7F4F8F4F9F4F16C0882311F03C
:101FE00096E911C0772321F09EE8872F762F05C050
:101FF000662371F096E8862F70E060E02AF09A95EB
:10200000660F771F881FDAF7880F9695879597F9DF
:102010000895990F0008550FAA0BE0E8FEEF161679
:102020001706E807F907C0F012161306E407F507CC
:1020300098F0621B730B840B950B39F40A2661F040
:10204000232B242B252B21F408950A2609F4A140E3
:10205000A6958FEF811D811D089597F99F6780E8F0
:1020600070E060E008959FEF80EC089500240A94EA
:102070001616170618060906089500240A94121663
:102080001306140605060895092E0394000C11F496
:10209000882352F0BB0F40F4BF2B11F460FF04C043
:1020A0006F5F7F4F8F4F9F4F089557FD9058440F9C
:1020B000551F59F05F3F71F04795880F97FB991FA7
:1020C00061F09F3F79F08795089512161306140664
:1020D000551FF2CF4695F1DF08C0161617061806F1
:1020E000991FF1CF86957105610508940895E894CC
:1020F000BB2766277727CB0197F908958ADF08F475
:102100008FEF08950BD0C0CFB1DF28F0B6DF18F005
:10211000952309F0A2CFA7CF1124EACFC6DFA0F301
:10212000959FD1F3950F50E0551F629FF001729F6C
:10213000BB27F00DB11D639FAA27F00DB11DAA1F8B
:10214000649F6627B00DA11D661F829F2227B00DD8
:10215000A11D621F739FB00DA11D621F839FA00D63
:10216000611D221F749F3327A00D611D231F849FB3
:10217000600D211D822F762F6A2F11249F5750400A
:102180008AF0E1F088234AF0EE0FFF1FBB1F661FA5
:10219000771F881F91505040A9F79E3F510570F05E
:1021A0005CCFA6CF5F3FECF3983EDCF38695779546
:1021B0006795B795F795E7959F5FC1F7FE2B880F59
:1021C000911D9695879597F9089511F40EF44BCFCC
:1021D00042C073DFD0F39923D9F3CEF39F57550B49
:1021E00087FF47D00024A0E640EA9001805856952A
:1021F000979528F4805C660F771F881F20F02617BC
:102200003707480730F4621B730B840B20293129F0
:102210004A2BA69517940794202531254A2758F76D
:10222000660F771F881F20F026173707480730F4FE
:10223000620B730B840B200D311D411DA09581F79E
:10224000B901842F9158880F969587950895E1DEFE
:10225000880B990B08959F3F31F0915020F487959A
:1022600077956795B795880F911D9695879597F9FE
:10227000089591505040660F771F881FD2F7089538
:10228000DB018F939F9363D0BF91AF91A29F800D8D
:10229000911DA39F900DB29F900D1124089597FB5F
:1022A000072E16F4009406D077FD08D060D007FC06
:1022B00005D03EF4909581959F4F08957095619556
:1022C0007F4F0895A1E21A2EAA1BBB1BFD010DC072
:1022D000AA1FBB1FEE1FFF1FA217B307E407F507D6
:1022E00020F0A21BB30BE40BF50B661F771F881FB2
:1022F000991F1A9469F760957095809590959B0148
:10230000AC01BD01CF010895EE0FFF1F881F8BBFE9
:102310000790F691E02D199405D0332312F48A1B0F
:102320009B0B10C0A29FB001B39FC001A39F700D73
:10233000811D1124911DB29F700D811D1124911DCD
:102340000895F0DFB7FF0895821B930B0895EADF2D
:10235000A59F900DB49F900DA49F800D911D1124F9
:102360000895B7FFF4CFF3DF821B930B0895AA1BE8
:10237000BB1B51E107C0AA1FBB1FA617B70710F070
:10238000A61BB70B881F991F5A95A9F780959095A2
:0A239000BC01CD010895F894FFCFC1
:10239A0000000000E302450272022F03A302810239
:1023AA0095020000000017064502DA04D9046E619E
:1023BA006E00696E66006F76660043616C696272D0
:1023CA006174696E67002E0043616C6962726174A0
:1023DA0065642100414C434F484F4C2044455445C5
:1023EA0043544544004163636964656E74004465FF
:1023FA0074656374656421004750524D4300475029
:10240A004747410041542B434D47463D310D00415A
:10241A0054202B20434D4753203D20222B3931385D
:10242A0032343033303535303022000D0A005361F2
:10243A007665204F757220536F756C004C61746914
:10244A0074756465203D2000204C6F6E6769747551
:06245A006465203D200036
:00000001FF
