:1000000002C100002EC100002CC100002AC1000066
:1000100028C1000026C1000024C1000022C1000048
:1000200020C100001EC100001CC100001AC1000058
:1000300018C1000016C1000014C1000012C1000068
:1000400010C100000EC100000CC100000AC1000078
:1000500008C1000006C1000004C1000004C5000082
:1000600000C10000CAC400009FC40000FAC0000024
:10007000F8C00000F6C00000F4C00000F2C00000AC
:10008000F0C00000EEC00000ECC00000EAC00000BC
:10009000E8C00000E6C00000E4C00000E2C00000CC
:1000A000E0C00000DEC00000DCC00000DAC00000DC
:1000B000D8C00000D6C00000D4C00000D2C00000EC
:1000C000D0C00000CEC00000CCC00000CAC00000FC
:1000D000C8C00000C6C00000C4C00000C2C000000C
:1000E000C0C0000000002100240027002A002D00CD
:1000F0003000330001010000040107010A01000083
:100100002200250028002B002E00310034000201BF
:100110000000050108010B0100002000230026005B
:1001200029002C002F00320000010000030106010D
:10013000090105050505070508080808020202026D
:100140000A0A080804040404010101010101010173
:100150000303030303030303040707070C0C0C0C3E
:100160000C0C0C0C02020202060606060606060627
:100170000B0B0B0B0B0B0B0B0102102020080810B4
:100180002040102040800201020108040201010207
:1001900004081020408080402010080402018004E0
:1001A000020180402010080402010804020101023B
:1001B0000408102040800102040810204080000044
:1001C0000A0B02090C0D0E080703040100000000D1
:1001D000000000000000000000000000000000001F
:1001E00000000000000000000000121110000000DC
:1001F00000000000000000000000000000000000FF
:10020000000000007D0511241FBECFEFD1E2DEBF4C
:10021000CDBF00E00CBF12E0A0E0B2E0E0E5F2E10B
:1002200000E00BBF02C007900D92AC35B107D9F7C3
:1002300023E0ACE5B2E001C01D92A339B207E1F7BB
:1002400011E0C3E0D1E000E005C021970109802F53
:10025000FE01C5D7C230D10780E00807B1F7F4D45A
:10026000F5C7CECEAF92BF92CF92DF92EF92FF92C0
:100270000F931F93CF93DF936C017B018B01040FCE
:10028000151FEB015E01AE18BF08C017D10759F06A
:100290006991D601ED91FC910190F081E02DC601AC
:1002A0001995892B79F7C501DF91CF911F910F9196
:1002B000FF90EF90DF90CF90BF90AF900895FC013A
:1002C000538D448D252F30E0842F90E0821B930BBB
:1002D000541710F0CF96089501970895FC01918D61
:1002E000828D981761F0A28DAE0FBF2FB11D5D9664
:1002F0008C91928D9F5F9F73928F90E008958FEF06
:100300009FEF0895FC01918D828D981731F0828DB9
:10031000E80FF11D858D90E008958FEF9FEF089510
:10032000FC01918D228D892F90E0805C9F4F821B74
:1003300091098F73992708958BE692E0F1DF21E010
:10034000892B09F420E0822F0895FC01A48DA80FC9
:10035000B92FB11DA35ABF4F2C91848D90E0019607
:100360008F739927848FA689B7892C93A089B18927
:100370008C91837080648C93938D848D981306C0C8
:100380000288F389E02D80818F7D80830895EF922C
:10039000FF920F931F93CF93DF93EC0181E0888F3F
:1003A0009B8D8C8D98131AC0E889F989808185FF0F
:1003B00015C09FB7F894EE89FF896083E889F989B1
:1003C00080818370806480839FBF81E090E0DF91B3
:1003D000CF911F910F91FF90EF900895F62E0B8D06
:1003E00010E00F5F1F4F0F731127E02E8C8D8E11C1
:1003F0000BC00FB607FCFACFE889F989808185FF29
:10040000F5CFCE01A2DFF2CFEB8DEC0FFD2FF11D6A
:10041000E35AFF4FF0829FB7F8940B8FEA89FB896C
:1004200080818062D0CFCF93DF93EC01888D8823C9
:10043000B1F0AA89BB89E889F9898C9185FD03C04F
:10044000808186FD0CC00FB607FCF7CF8C9185FF2D
:10045000F2CF808185FFEDCFCE0177DFEACFDF914C
:10046000CF91089580E090E0892B21F065DF811124
:100470000E94000080E090E0892B49F080E090E04D
:10048000892B29F00E94000081110E94000080E069
:1004900090E0892B49F080E090E0892B29F00E94C0
:1004A000000081110E94000080E090E0892B49F05B
:1004B00080E090E0892B29F00E94000081110C94CB
:1004C000000008958150823108F059C0E82FF0E013
:1004D0008827E359FD4F8F4F82C68D0291027F021C
:1004E00085028902BF0294029A029E02A402A80217
:1004F000AC02B202B602BF02BA02C002C4028091CC
:1005000080008F77809380000895809180008F7D98
:10051000F9CF80918000877FF5CF84B58F7784BD38
:10052000089584B58F7DFBCF8091B0008F77809345
:10053000B00008958091B0008F7DF9CF8091900038
:100540008F77809390000895809190008F7DF9CFF0
:1005500080919000877FF5CF8091A0008F77809366
:10056000A00008958091A0008F7DF9CF8091A00018
:10057000877FF5CF809120018F77809320010895A8
:10058000809120018F7DF9CF80912001877FF5CF69
:10059000CF93DF93E5ECF1E08491EFE7F1E0D491C4
:1005A000E9E3F1E0C491CC2399F081118BDFEC2FCA
:1005B000F0E0EE0FFF1FE85EFE4FA591B491EC91C5
:1005C000ED2381E090E009F480E0DF91CF91089580
:1005D00080E090E0FACF1F93CF93DF93282F30E095
:1005E000F901E254FE4F8491F901E858FE4FD4918D
:1005F000F901EE5CFE4FC491CC23A1F0162F8111BE
:1006000061DFEC2FF0E0EE0FFF1FE250FF4FA591EE
:10061000B4918FB7F894EC91111108C0D095DE23F6
:10062000DC938FBFDF91CF911F910895DE2BF8CF20
:10063000CF93DF9390E0FC01E858FE4F24918E5C4D
:100640009E4FFC0184918823D1F090E0880F991F80
:10065000FC01EC51FF4FA591B491FC01E250FF4F1A
:10066000C591D49161110EC09FB7F8948C91E22F7F
:10067000E0958E238C932881E223E8839FBFDF914E
:10068000CF9108958FB7F894EC91E22BEC938FBF44
:10069000F6CF90917B00977F90937B008653806488
:1006A00080937C0080917A00806480937A008091AE
:1006B0007A0086FDFCCF80917800909179000895B2
:1006C0003FB7F8948091610290916202A091630219
:1006D000B091640226B5A89B05C02F3F19F0019682
:1006E000A11DB11D3FBFBA2FA92F982F8827BC018C
:1006F000CD01620F711D811D911D42E0660F771FB4
:10070000881F991F4A95D1F70895089590E080E0D9
:100710000895FC0101900020E9F73197AF01481BD3
:10072000590BBC0188E093E09DCDCF93DF93EC01A2
:1007300060E08E8150DF61E08E814DDF60E08E8170
:100740004ADF8BE891E00197F1F7DF91CF910895AF
:10075000CF92DF92EF92FF920F931F93CF93DF938D
:100760006C017C0187E0E80EF11CD0E0C0E0062FB0
:1007700010E0B8010C2E02C0759567950A94E2F757
:100780006170F70181917F0126DF2196C430D10588
:1007900081F7C601DF91CF911F910F91FF90EF90EC
:1007A000DF90CF90C2CFCF92DF92EF92FF920F9364
:1007B0001F93CF93DF93EC01F62E642F8C810BDF18
:1007C0008D818F3F11F060E006DF0F2D10E08F85E7
:1007D00084FF23C06E0187E0C80ED11CF12CE12CF0
:1007E000B8010E2C02C0759567950A94E2F7617006
:1007F000F60181916F01EFDEFFEFEF1AFF0A88E04B
:10080000E816F10469F7CE01DF91CF911F910F91A6
:10081000FF90EF90DF90CF9088CFB80184E075957E
:1008200067958A95E1F7CE0193DF6F2DCE01DF91B9
:10083000CF911F910F91FF90EF90DF90CF9088CFD5
:1008400040E0682F88E093E0AECF81E0F9DF8BE3F2
:100850009FE10197F1F70895E8E0F3E08089982F90
:100860009460908B8C60ECCFCF93DF93823029F42F
:100870009091170398609093170380931B03109235
:100880001C0380E480931D0380E180931E0380E5B8
:1008900080931F0361E080910C03CADE80910D03F9
:1008A0008F3F11F061E0C4DE61E080910E03C0DE95
:1008B000C8E0D3E09E01285033408091170384FDA7
:1008C0000AC084E090E02196281739073CF461E0E3
:1008D0008E81AEDEEFCF88E090E0F5CF8BE39DE038
:1008E0000197F1F760E080910C0375DE60E0809184
:1008F0000E0371DE80910D038F3F11F060E06BDE1F
:100900008091170384FD2BC063E088E093E020DF33
:10091000CBE4D6E4CE010197F1F763E088E093E001
:1009200017DF2197F1F763E088E093E011DF83E5BB
:1009300092E00197F1F762E088E093E009DF8091AF
:10094000170380627DDF84E08093180385DF7DDFFD
:1009500082E08093190386E0DF91CF9171CF8062AE
:100960006FDF8BE496E40197F1F7809117038062C3
:1009700067DF83E592E00197F1F7809117038062CA
:100980005FDFDDCF90911B03891710F08FEF890F88
:10099000E82FF0E0E85FFC4F8489806851CF41E0A8
:1009A00002DF81E090E008951F920F920FB60F9240
:1009B00011240BB60F922F933F934F935F936F9336
:1009C0007F938F939F93AF93BF93EF93FF938BE6A8
:1009D00092E0BBDCFF91EF91BF91AF919F918F911E
:1009E0007F916F915F914F913F912F910F900BBE2F
:1009F0000F900FBE0F901F9018951F920F920FB679
:100A00000F9211240BB60F922F938F939F93EF9316
:100A1000FF93E0917B02F0917C028081E091810262
:100A2000F091820282FD1DC09081809184028F5FCF
:100A30008F7320918502821741F0E0918402F0E0EB
:100A4000E559FD4F958F80938402FF91EF919F911F
:100A50008F912F910F900BBE0F900FBE0F901F9094
:100A600018958081F2CF1F920F920FB60F9211242A
:100A70002F933F938F939F93AF93BF9380915D028A
:100A800090915E02A0915F02B091600230915C0291
:100A900023E0230F2D3758F50196A11DB11D20939A
:100AA0005C0280935D0290935E02A0935F02B0931C
:100AB00060028091610290916202A0916302B09104
:100AC00064020196A11DB11D8093610290936202A0
:100AD000A0936302B0936402BF91AF919F918F91F5
:100AE0003F912F910F900FBE0F901F90189526E801
:100AF000230F0296A11DB11DD2CFEBE6F2E01382C7
:100B0000128288EE93E0A0E0B0E084839583A68310
:100B1000B78384E092E09183808385EC90E09587B1
:100B2000848784EC90E09787868780EC90E0918BB7
:100B3000808B81EC90E0938B828B82EC90E0958BA4
:100B4000848B86EC90E0978B868B118E128E138EA1
:100B5000148EE0E2F3E04FEF5FEFBA014083518380
:100B60006283738310861186128613868FEF99EC49
:100B7000AAE9BBE3808B918BA28BB38B808F918F83
:100B8000A28FB38F80A391A3A2A3B3A380A791A7A1
:100B9000A2A7B3A780AB91ABA2ABB3AB40AF51AFB1
:100BA00062AF73AF8FEF90E0909361038093600327
:100BB00040936403509365036093660370936703E7
:100BC00040936C0350936D0360936E0370936F03B7
:100BD000109274031092750382E080938503109243
:100BE0008603109287031092880310928903109253
:100BF0008A0310928B0310928C0310928E03109232
:100C00008D031092900310928F0310927603E8E008
:100C1000F3E01382128286E192E0918380838DE07B
:100C200084838FEF85838CE086838BE087838AE0E3
:100C3000808789E0818788E08287138614861586FD
:100C40001686178681E010CE789484B5826084BDC4
:100C500084B5816084BD85B5826085BD85B58160C0
:100C600085BD80916E00816080936E00109281003E
:100C700080918100826080938100809181008160F9
:100C800080938100809180008160809380008091BA
:100C9000B10084608093B1008091B0008160809346
:100CA000B0008091910082608093910080919100CA
:100CB000816080939100809190008160809390008A
:100CC0008091A10082608093A1008091A100816049
:100CD0008093A1008091A00081608093A00080910A
:100CE00021018260809321018091210181608093A4
:100CF00021018091200181608093200180917A0000
:100D0000846080937A0080917A00826080937A0078
:100D100080917A00816080937A0080917A00806867
:100D200080937A001092C100E0917B02F0917C02E6
:100D300082E08083E0917702F09178021082E09166
:100D40007902F0917A028FEC808310928302E09115
:100D50007F02F091800286E08083E0917D02F09135
:100D60007E02808180618083E0917D02F0917E022D
:100D7000808188608083E0917D02F0917E02808195
:100D800080688083E0917D02F0917E0280818F7D7A
:100D9000808382E069DD59DD61E086E049DC61E065
:100DA00085E046DC60E086E343DC60E087E340DC2E
:100DB00060E088E33DDC80E0E5DD8EE192E0A9DCE7
:100DC0004BDD81E0DFDD10926A0210926902109221
:100DD00068021092670210926602109265029AE011
:100DE000C92ED12C41E050E06AE272E088E093E045
:100DF00039DA32DD86E34DDCE0906902F0906A0278
:100E0000E80EF91EF0926A02E092690287E341DC83
:100E10000091670210916802080F191F1093680271
:100E20000093670288E335DCC0916502D0916602C9
:100E3000C80FD91FD0936602C093650241DC2B0115
:100E40003C0188EC882E912CA12CB12C39DC641942
:100E5000750986099709683E734081059105B0F3CD
:100E600021E0821A9108A108B10888EE480E83E0BB
:100E7000581E611C711C81149104A104B10431F746
:100E800081E0C81AD10809F0ADCF2AE030E0C701EF
:100E9000B90192D170936A0260936902C801B901E5
:100EA0008BD17093680260936702CE01B90184D13F
:100EB0007093660260936502C8DC81E063DD8CE2BA
:100EC00092E027DC65DB0197B1F461E086E083DB2B
:100ED00061E085E080DB81E055DD88E392E019DCAC
:100EE000BBDC56DB0197E9F360E086E074DB60E091
:100EF00085E071DBAADC86E3CCDBE0906902F09050
:100F00006A028E199F09181619060CF053C086E361
:100F1000C0DB8E199F097C0187E3BBDB0091670270
:100F200010916802801B910B181619060CF047C02F
:100F300087E3AFDB801B910B8C0188E3AADBC091B8
:100F40006502D09166028C1B9D0B181619060CF0D9
:100F50003BC088E39EDB8C1B9D0BEC019701D70106
:100F600046D16B017C019801D80141D1C60ED71E34
:100F7000E81EF91E9E01DE013AD16C0D7D1D8E1D0D
:100F80009F1D5AD0C3D027D06B32714014F15DDC65
:100F900080E0F8DC89E492E0BCDB81E0F3DC82E510
:100FA00092E0B7DB59DC61E086E015DB61E085E0CB
:100FB00012DBFFCF86E36DDBE81AF90AADCF87E3DA
:100FC00068DB081B190BB9CF88E363DBC81BD90B9F
:100FD000C5CF48DA77CF04D06894B1118DC0089599
:100FE00070D088F09F5790F0B92F9927B751A0F093
:100FF000D1F0660F771F881F991F1AF0BA95C9F7AD
:1010000012C0B13081F077D0B1E0089574C0672F7D
:10101000782F8827B85F39F0B93FCCF3869577955C
:101020006795B395D9F73EF4909580957095619545
:101030007F4F8F4F9F4F0895E89409C097FB3EF470
:1010400090958095709561957F4F8F4F9F4F992315
:10105000A9F0F92F96E9BB279395F6958795779593
:101060006795B795F111F8CFFAF4BB0F11F460FF53
:101070001BC06F5F7F4F8F4F9F4F16C0882311F0AB
:1010800096E911C0772321F09EE8872F762F05C0BF
:10109000662371F096E8862F70E060E02AF09A955A
:1010A000660F771F881FDAF7880F9695879597F94F
:1010B000089557FD9058440F551F59F05F3F71F048
:1010C0004795880F97FB991F61F09F3F79F08795AF
:1010D0000895121613061406551FF2CF4695F1DF38
:1010E00008C0161617061806991FF1CF86957105C8
:1010F000610508940895E894BB2766277727CB01FC
:1011000097F9089511F40EF44DC03EC0DADFD0F324
:101110009923D9F3CEF39F57550B87FF46D0002470
:10112000A0E640EA900180585695979528F4805C97
:10113000660F771F881F20F026173707480730F4FF
:10114000621B730B840B202931294A2BA695179417
:101150000794202531254A2758F7660F771F881FE7
:1011600020F026173707480730F4620B730B840B07
:10117000200D311D411DA09581F7B901842F915893
:10118000880F9695879508959F3F31F0915020F4F0
:10119000879577956795B795880F911D9695879553
:1011A00097F908959FEF80EC089591505040660F95
:1011B000771F881FD2F7089597FB072E16F4009427
:1011C00006D077FD08D02ED007FC05D03EF49095D0
:1011D00081959F4F0895709561957F4F0895EE0F0B
:1011E000FF1F881F8BBF0790F691E02D199405D043
:1011F000332312F48A1B9B0B10C0A29FB001B39F34
:10120000C001A39F700D811D1124911DB29F700D0F
:10121000811D1124911D0895F0DFB7FF0895821BF1
:10122000930B0895AA1BBB1B51E107C0AA1FBB1F4C
:10123000A617B70710F0A61BB70B881F991F5A9562
:10124000A9F780959095BC01CD010895F894FFCF42
:1012500000000000C70132015F01130290016E011E
:10126000820100000000CF04320186038503436140
:101270006C6962726174696E67002E0043616C690B
:101280006272617465642100414C434F484F4C20A9
:101290004445544543544544004163636964656E65
:0C12A0007400446574656374656421008B
:00000001FF
