:1000000002C1000031C100002FC100002DC100005D
:100010002BC1000029C1000027C1000025C100003C
:1000200023C1000021C100001FC100001DC100004C
:100030001BC1000019C1000017C1000015C100005C
:1000400013C1000011C100000FC100000DC100006C
:100050000BC1000009C1000007C100000C94BD0BDA
:1000600003C100000C94870B0C945D0BFDC00000D5
:10007000FBC00000F9C00000F7C00000F5C00000A0
:10008000F3C00000F1C00000EFC00000EDC00000B0
:100090000C94270B0C94FD0AE7C00000E5C000009B
:1000A000E3C00000E1C00000DFC00000DDC00000D0
:1000B000DBC00000D9C00000D7C00000D5C00000E0
:1000C000D3C00000D1C00000CFC00000CDC00000F0
:1000D000CBC00000C9C00000C7C00000C5C0000000
:1000E000C3C0000000002100240027002A002D00CA
:1000F0003000330001010000040107010A01000083
:100100002200250028002B002E00310034000201BF
:100110000000050108010B0100002000230026005B
:1001200029002C002F00320000010000030106010D
:10013000090105050505070508080808020202026D
:100140000A0A080804040404010101010101010173
:100150000303030303030303040707070C0C0C0C3E
:100160000C0C0C0C02020202060606060606060627
:100170000B0B0B0B0B0B0B0B0102102020080810B4
:100180002040102040800201020108040201010207
:1001900004081020408080402010080402018004E0
:1001A000020180402010080402010804020101023B
:1001B0000408102040800102040810204080000044
:1001C0000A0B02090C0D0E080703040100000000D1
:1001D000000000000000000000000000000000001F
:1001E00000000000000000000000121110000000DC
:1001F00000000000000000000000000000000000FF
:1002000000000000070C11241FBECFEFD1E2DEBFBB
:10021000CDBF00E00CBF12E0A0E0B2E0E8E8F5E2FC
:1002200000E00BBF02C007900D92A63FB107D9F7BF
:1002300024E0A6EFB2E001C01D92AA3CB207E1F7AC
:1002400011E0C3E0D1E000E006C021970109802F52
:10025000FE010E947B12C230D10780E00807A9F797
:100260000E94D40C0C94C212CBCEFC01A089B1899F
:1002700082E08C93A485B5851C92A685B7858FEC0A
:100280008C93108EA489B58986E08C93A289B3895A
:100290008C9180618C93A289B3898C9188608C93B6
:1002A000A289B3898C9180688C930288F389E02DB0
:1002B00080818F7D808308950F931F93CF93DF9369
:1002C000C091AD04EEEAF4E0CD3211F0EDEAF4E0D5
:1002D0008F0120E030E0A901D801DD918D0180ED92
:1002E0008D0F8A3090F4AAE0B0E00E949E122D2F6C
:1002F000DD0F330B440B550B260F371F481F591FBB
:100300002053310941095109E7CFA4E6B0E00E942A
:100310009E12AB01BC01DF01819190ED980F9A30E4
:10032000D0F38E3259F511968C91119790ED980F6C
:100330009A3020F5082E000C990BC0972AE0289FD0
:100340008001299F100D1124012E000C220B330B6C
:10035000400F511F621F731F12968C9190ED980FE2
:100360009A3060F4082E000C990BC097092E000CEF
:10037000AA0BBB0B480F591F6A1F7B1FCD3239F4E4
:1003800070956095509541955F4F6F4F7F4FCB01B2
:10039000BA01DF91CF911F910F9108954F925F9213
:1003A0006F927F928F929F92AF92BF92CF92DF9285
:1003B000EF92FF921F93CF93DF93CDEAD4E0FE013B
:1003C000C12CD12C7601119180ED810F8A30A8F4D7
:1003D000AAE0B0E0A70196010E949E12C12E110F63
:1003E000DD08EE08FF08C60ED71EE81EF91E80E3E2
:1003F000C81AD108E108F108E6CFC701B60124E622
:1004000030E040E050E00E9459129B01AC0160EAEC
:1004100076E881E090E00E9437124B015C019E017A
:10042000899190ED980F9A30D0F38E3221F5E90141
:10043000219680E1482E87E2582E612C712CA991DB
:1004400080ED8A0F8A30B8F40A2E000CBB0BD097CF
:10045000A30192010E94A812860E971EA81EB91E23
:10046000C301B2012AE030E040E050E00E9459129E
:1004700029013A01E4CFC701B60124E630E040E0AB
:1004800050E00E94591260E472E48FE090E00E9414
:1004900037126B017C01C501B4016D5F7F4F8F4F37
:1004A0009F4F26E030E040E050E00E945912C70123
:1004B000B601620F731F841F951FDF91CF911F91AB
:1004C000FF90EF90DF90CF90BF90AF909F908F9074
:1004D0007F906F905F904F900895AF92BF92CF92B0
:1004E000DF92EF92FF920F931F93CF93DF936C01F4
:1004F0007B018B01040F151FEB015E01AE18BF08D5
:10050000C017D10759F06991D601ED91FC91019086
:10051000F081E02DC6011995892B79F7C501DF918E
:10052000CF911F910F91FF90EF90DF90CF90BF90F0
:10053000AF900895FC01538D448D252F30E0842F1A
:1005400090E0821B930B541710F0CF9608950197FB
:100550000895FC01918D828D981761F0A28DAE0FE8
:10056000BF2FB11D5D968C91928D9F5F9F73928F6F
:1005700090E008958FEF9FEF0895FC01918D828D9B
:10058000981731F0828DE80FF11D858D90E0089568
:100590008FEF9FEF0895FC01918D228D892F90E0C0
:1005A000805C9F4F821B91098F739927089585E086
:1005B00093E0F1DF21E0892B09F420E0822F0895F8
:1005C00082EA93E0E8DF21E0892B09F420E0822F22
:1005D0000895FC01A48DA80FB92FB11DA35ABF4FD8
:1005E0002C91848D90E001968F739927848FA68932
:1005F000B7892C93A089B1898C91837080648C9386
:10060000938D848D981306C00288F389E02D808134
:100610008F7D80830895EF92FF920F931F93CF9366
:10062000DF93EC0181E0888F9B8D8C8D98131AC02D
:10063000E889F989808185FF15C09FB7F894EE8914
:10064000FF896083E889F989808183708064808371
:100650009FBF81E090E0DF91CF911F910F91FF90BC
:10066000EF900895F62E0B8D10E00F5F1F4F0F7364
:100670001127E02E8C8D8E110BC00FB607FCFACF20
:10068000E889F989808185FFF5CFCE01A2DFF2CF1D
:10069000EB8DEC0FFD2FF11DE35AFF4FF0829FB75A
:1006A000F8940B8FEA89FB8980818062D0CFCF9349
:1006B000DF93EC01888D8823B1F0AA89BB89E88992
:1006C000F9898C9185FD03C0808186FD0CC00FB631
:1006D00007FCF7CF8C9185FFF2CF808185FFEDCFAE
:1006E000CE0177DFEACFDF91CF91089580E090E0EF
:1006F000892B21F065DF81110E94000080E090E0ED
:10070000892B21F054DF81110E94000080E090E0ED
:10071000892B49F080E090E0892B29F00E940000AD
:1007200081110E94000080E090E0892B49F080E078
:1007300090E0892B29F00E94000081110C940000A8
:1007400008958150823108F05AC0E82FF0E08827E0
:10075000E355FC4F8F4F0C947B12CD03D103BF03A5
:10076000C503C903FF03D403DA03DE03E403E8038C
:10077000EC03F203F603FF03FA0300040404809180
:1007800080008F77809380000895809180008F7D16
:10079000F9CF80918000877FF5CF84B58F7784BDB6
:1007A000089584B58F7DFBCF8091B0008F778093C3
:1007B000B00008958091B0008F7DF9CF80919000B6
:1007C0008F77809390000895809190008F7DF9CF6E
:1007D00080919000877FF5CF8091A0008F778093E4
:1007E000A00008958091A0008F7DF9CF8091A00096
:1007F000877FF5CF809120018F7780932001089526
:10080000809120018F7DF9CF80912001877FF5CFE6
:10081000CF93DF93282F30E0F901E254FE4F84910B
:10082000F901E858FE4FD491F901EE5CFE4FC491F6
:10083000CC2399F0811185DFEC2FF0E0EE0FFF1F44
:10084000E85EFE4FA591B491EC91ED2381E090E03C
:1008500009F480E0DF91CF91089580E090E0FACF35
:100860001F93CF93DF93282F30E0F901E254FE4F1E
:100870008491F901E858FE4FD491F901EE5CFE4FE6
:10088000C491CC23A1F0162F81115BDFEC2FF0E097
:10089000EE0FFF1FE250FF4FA591B4918FB7F89470
:1008A000EC91111108C0D095DE23DC938FBFDF914E
:1008B000CF911F910895DE2BF8CFCF93DF9390E077
:1008C000FC01E858FE4F24918E5C9E4FFC01849100
:1008D0008823D1F090E0880F991FFC01EC51FF4F65
:1008E000A591B491FC01E250FF4FC591D4916111E3
:1008F0000EC09FB7F8948C91E22FE0958E238C93D5
:100900002881E223E8839FBFDF91CF9108958FB7BD
:10091000F894EC91E22BEC938FBFF6CF90917B0093
:10092000977F90937B008653806480937C008091B6
:100930007A00806480937A0080917A0086FDFCCFF3
:10094000809178009091790008953FB7F894809154
:10095000FB029091FC02A091FD02B091FE0226B52F
:10096000A89B05C02F3F19F00196A11DB11D3FBFE7
:10097000BA2FA92F982F8827BC01CD01620F711DB6
:10098000811D911D42E0660F771F881F991F4A95B0
:10099000D1F708958F929F92AF92BF92CF92DF923C
:1009A000EF92FF924B015C01D0DF6B017C01CDDF48
:1009B0006C197D098E099F09683E73408105910578
:1009C000B0F321E0821A9108A108B10888EEC80EA0
:1009D00083E0D81EE11CF11C81149104A104B10430
:1009E00031F7FF90EF90DF90CF90BF90AF909F9046
:1009F0008F9008952FB7F8946091F7027091F802E4
:100A00008091F9029091FA022FBF0895089590E025
:100A100080E00895CF93DF93EC0160E08E8120DFCA
:100A200061E08E811DDF60E08E811ADF8BE891E04E
:100A30000197F1F7DF91CF910895CF92DF92EF9276
:100A4000FF920F931F93CF93DF936C017C0187E09C
:100A5000E80EF11CD0E0C0E0062F10E0B8010C2E2B
:100A600002C0759567950A94E2F76170F70181916C
:100A70007F01F6DE2196C430D10581F7C601DF91F2
:100A8000CF911F910F91FF90EF90DF90CF90C2CF49
:100A9000CF92DF92EF92FF920F931F93CF93DF934A
:100AA000EC01F62E642F8C81DBDE8D818F3F11F0FF
:100AB00060E0D6DE0F2D10E08F8584FF23C06E012D
:100AC00087E0C80ED11CF12CE12CB8010E2C02C01D
:100AD000759567950A94E2F76170F60181916F014F
:100AE000BFDEFFEFEF1AFF0A88E0E816F10469F7AE
:100AF000CE01DF91CF911F910F91FF90EF90DF908A
:100B0000CF9088CFB80184E0759567958A95E1F715
:100B1000CE0193DF6F2DCE01DF91CF911F910F9109
:100B2000FF90EF90DF90CF9088CF40E0682F8FE369
:100B300094E0AECF81E0F9DF8BE39FE10197F1F71D
:100B40000895EFE3F4E08089982F9460908B8C6097
:100B5000ECCFCF93DF93823029F490914E049860CC
:100B600090934E04809352041092530480E4809337
:100B7000540480E18093550480E58093560461E03D
:100B8000809143049ADE809144048F3F11F061E02C
:100B900094DE61E08091450490DECFE3D4E09E01D5
:100BA0002F53344080914E0484FD0AC084E090E0CD
:100BB0002196281739073CF461E08E817EDEEFCF65
:100BC00088E090E0F5CF8BE39DE00197F1F760E0DE
:100BD0008091430445DE60E08091450441DE8091D0
:100BE00044048F3F11F060E03BDE80914E0484FDB1
:100BF0002BC063E08FE394E020DFCBE4D6E4CE01AA
:100C00000197F1F763E08FE394E017DF2197F1F7A5
:100C100063E08FE394E011DF83E592E00197F1F761
:100C200062E08FE394E009DF80914E0480627DDF13
:100C300084E080934F0485DF7DDF82E08093500461
:100C400086E0DF91CF9171CF80626FDF8BE496E415
:100C50000197F1F780914E04806267DF83E592E0AF
:100C60000197F1F780914E0480625FDFDDCF9091B4
:100C70005204891710F08FEF890FE82FF0E0E15C44
:100C8000FB4F8489806851CF41E002DF81E090E032
:100C90000895FB0101900020E9F73197AF01461B51
:100CA000570BDC01ED91FC910280F381E02D19944A
:100CB000CF93DF936AE185E093E0ADDCEC016EE178
:100CC00072E085E093E0E5DF8C0F9D1FDF91CF910F
:100CD00008958F929F92AF92BF920F931F93CF93DD
:100CE000DF93CDB7DEB7A1970FB6F894DEBF0FBE86
:100CF000CDBF19A2423008F44AE08E010F5D1F4FAC
:100D0000842E912CB12CA12CA50194010E94591282
:100D1000E62FB901CA01EA30FCF4E05DD801EE9398
:100D20008D01232B242B252B79F790E080E0109761
:100D300021F0BD0185E093E0ACDFA1960FB6F894F9
:100D4000DEBF0FBECDBFDF91CF911F910F91BF903E
:100D5000AF909F908F900895E95CE0CF4F925F92A3
:100D60006F927F928F929F92AF92BF92CF92DF92BB
:100D7000EF92FF920F931F93CF936B017C01742E20
:100D8000AC019B010E941E1261E272E0811126C03B
:100D900046015701E894B7F82FEF3FEF4FE75FE7C1
:100DA000C501B4010E941E1281110CC02FEF3FEF4C
:100DB0004FE75FE7C501B4010E94261065E272E0CB
:100DC000181664F02FEF3FEF4FE75FE4C701B6015D
:100DD0000E9475111816A4F469E272E085E093E0B0
:100DE000CF911F910F91FF90EF90DF90CF90BF9028
:100DF000AF909F908F907F906F905F904F9049CF72
:100E00002FEF3FEF4FE75FECC701B6010E942610BE
:100E100087FDE2CF20E030E0A901C701B6010E94C2
:100E2000261010E000E087FF09C06DE285E093E046
:100E3000F2DB8C01F7FAF094F7F8F094C0E060E090
:100E400070E080E09FE37C1641F020E030E040E27B
:100E500051E40E942A10CF5FF6CFA70196010E94AD
:100E6000C20F2B013C010E9497104B015C014AE02C
:100E700030DF7C01E00EF11ECC23B1F1C501B401DD
:100E80000E94C3109B01AC01C301B2010E94C10FBB
:100E90004B015C016EE285E093E0BDDBE80EF91EDC
:100EA000C15010F120E030E040E251E4C501B4014E
:100EB0000E9479112B013C010E9497104B01B12C2B
:100EC000A12C4AE0C501B40104DFE80EF91EC501FA
:100ED000B4010E94C3109B01AC01C301B2010E9486
:100EE000C10F4B015C01DCCFC701CF911F910F9166
:100EF000FF90EF90DF90CF90BF90AF909F908F903A
:100F00007F906F905F904F900895CF93DF93BC01D7
:100F100085E093E0BEDEEC016EE172E085E093E0F7
:100F2000B8DE8C0F9D1FDF91CF910895B2CE4F9206
:100F30005F926F927F928F929F92AF92BF92CF9269
:100F4000DF92EF92FF920F931F93CF93DF937C0179
:100F50006B0150DD4B015C0100E012E077247394DB
:100F600049DD681979098A099B09683E7340810542
:100F7000910508F446C1002309F456C08090670427
:100F800090906804A0906904B0906A0440906F0447
:100F90005090700460907104709072048091A3046A
:100FA0009091A404A091A504B091A6048F3F9F4FF7
:100FB000AF4FBF4F09F01EDD60E070E08AE794E4B8
:100FC000FFEF8F16F9EC9F06FAE9AF06FBE3BF06C9
:100FD00051F0C501B4010E94C51020E034E244E79D
:100FE00059E40E942A10F7016083718382839383FE
:100FF00060E070E08AE794E4FFEF8F16F9EC9F065B
:10100000FAE9AF06FBE3BF0651F0C301B2010E944B
:10101000C51020E034E244E759E40E942A10F601AA
:101020006083718382839383DF91CF911F910F91AE
:10103000FF90EF90DF90CF90BF90AF909F908F90F8
:101040007F906F905F904F900895CA3209F403C16A
:10105000CC3209F0B8C28091AB048C278093AB04EA
:10106000FAC08091BD04F0E0E355FB4F1082D091AF
:10107000AC04DD2309F468C12091AD04822F022E57
:10108000000C990B3FEB320F363008F0E9C0C797E0
:101090008295807F9091AE04292F092E000C330B8E
:1010A0004FEB490F463008F0E3C027533109820F58
:1010B0009091AB0489133EC1D091BF04DD2309F4A4
:1010C000CDC08091C4049091C50401969093C5044D
:1010D0008093C40480919F049091A004A091A104E6
:1010E000B091A20480939B0490939C04A0939D04D0
:1010F000B0939E048091A7049091A804A091A904A4
:10110000B091AA048093A3049093A404A093A5048F
:10111000B093A6048091BC04882309F4B2C0813046
:1011200009F060C080915B0490915C04A0915D0423
:10113000B0915E048093570490935804A09359048F
:10114000B0935A048091630490916404A091650463
:10115000B091660480935F0490936004A09361044F
:10116000B093620480916B0490916C04A0916D0423
:10117000B0916E048093670490936804A09369040F
:10118000B0936A048091730490917404A0917504E3
:10119000B091760480936F0490937004A0937104CF
:1011A000B09372048091830490918404A09185048B
:1011B000B091860480937F0490938004A09381046F
:1011C000B093820480918B0490918C04A0918D0443
:1011D000B0918E048093870490938804A09389042F
:1011E000B0938A048091BD048F5F8093BD041092F8
:1011F000BE0481E0CA3209F080E08093AC04D111D2
:101200000D2F82EA93E0C7D9892B09F4A9CE82EA8F
:1012100093E09FD9C82F8091C0049091C104A09100
:10122000C204B091C3040196A11DB11D8093C004F6
:101230009093C104A093C204B093C304C43209F4D0
:10124000B5C1E091BE04C5320CF0FFCECA3019F032
:10125000CD3009F0B8C1EF3008F403CFD0E0C2CFF1
:101260002156263018F48755910912CFC09710CF18
:101270009156963018F42755310919CF205331096A
:1012800016CF80917B0490917C04A0917D04B09155
:101290007E048093770490937804A0937904B093AC
:1012A0007A0480915B0490915C04A0915D04B091FC
:1012B0005E048093570490935804A0935904B0930C
:1012C0005A0480916B0490916C04A0916D04B091CC
:1012D0006E048093670490936804A0936904B093AC
:1012E0006A048091730490917404A0917504B09184
:1012F000760480936F0490937004A0937104B0936C
:1013000072048091990490919A0490939804809328
:1013100097048091930490919404A0919504B091C6
:10132000960480938F0490939004A0939104B093BB
:10133000920458CF8091C6049091C704019690936F
:10134000C7048093C6048ACF81111CC04DEA54E0C3
:10135000ADE2B2E0CA01FC012191CF01222309F4E0
:1013600046C13D912317B9F3A3E3B2E0FA0181919D
:10137000AF01882309F43EC19D918917B9F31093F9
:10138000BC0430CFE091BC04E23009F467CF909107
:10139000AD04992309F462CF20E2E29FF001112409
:1013A000E82B3197E932F10508F01CCF8827E45289
:1013B000F64F8F4F0C947B12220A3C0A500A6B0A9C
:1013C000760AB00AB70AC00ACB0AF208F208F20895
:1013D000F208F208F208F208F208F208F208F2083D
:1013E000F208F208F208F208F208F208F208F2082D
:1013F000F208F208F208F208220A360A3C0A500AF9
:101400006B0A760A910A9C0A050AEDEAF4E020E0EC
:1014100030E0A901619080ED860D8A3008F097C018
:10142000AAE0B0E00E949E12262D660C330B440BFE
:10143000550B260F371F481F591F205331094109EB
:101440005109E8CF0E945C0160935B0470935C04D7
:1014500080935D0490935E04CDDA60939F04709353
:10146000A0048093A1049093A204BCCE81E09134A7
:1014700009F47AC080E078C00E94CE0160936B04CA
:1014800070936C0480936D0490936E04B3DA609350
:10149000A7047093A8048093A9049093AA04A2CEF1
:1014A000933509F0DBCE80916B0490916C04A09190
:1014B0006D04B0916E04B095A095909581959F4F65
:1014C000AF4FBF4F80936B0490936C04A0936D0457
:1014D000B0936E0487CE0E94CE0160937304709324
:1014E000740480937504909376047CCE973509F04C
:1014F000B5CE8091730490917404A0917504B0915D
:101500007604B095A095909581959F4FAF4FBF4FB2
:101510008093730490937404A0937504B09376043D
:1015200061CE0E945C016093830470938404809375
:1015300085049093860456CE0E945C0160938B04D0
:1015400070938C0480938D0490938E044BCE2093E3
:10155000630430936404409365045093660442CE60
:1015600081E091330CF486CF8093BF043BCE8DEAAB
:1015700094E0E2D4992790939A048093990432CE10
:101580000E945C016093930470939404809395048B
:101590009093960427CE0E945C0160937B04709325
:1015A0007C0480937D0490937E041CCE1092BE0434
:1015B0001092BD041092AB041093BC041092AC04C2
:1015C0001092BF041ECEEE3040F481E08E0F809367
:1015D000BE04F0E0E355FB4FC0838091AC04811161
:1015E00010CE8091AB04C827C093AB040ACE709292
:1015F000BC04F8CD1092BC04F5CD1F920F920FB62B
:101600000F9211240BB60F922F933F934F935F933A
:101610006F937F938F939F93AF93BF93EF93FF93BA
:1016200085E093E00E94E902FF91EF91BF91AF91B5
:101630009F918F917F916F915F914F913F912F91EA
:101640000F900BBE0F900FBE0F901F9018951F921A
:101650000F920FB60F9211240BB60F922F938F9308
:101660009F93EF93FF93E0911503F0911603808110
:10167000E0911B03F0911C0382FD1DC090818091BD
:101680001E038F5F8F7320911F03821741F0E0913B
:101690001E03F0E0EB5FFC4F958F80931E03FF91DC
:1016A000EF919F918F912F910F900BBE0F900FBED6
:1016B0000F901F9018958081F2CF1F920F920FB656
:1016C0000F9211240BB60F922F933F934F935F937A
:1016D0006F937F938F939F93AF93BF93EF93FF93FA
:1016E00082EA93E00E94E902FF91EF91BF91AF91EE
:1016F0009F918F917F916F915F914F913F912F912A
:101700000F900BBE0F900FBE0F901F9018951F9259
:101710000F920FB60F9211240BB60F922F938F9347
:101720009F93EF93FF93E091B203F091B303808115
:10173000E091B803F091B90382FD1DC090818091C2
:10174000BB038F5F8F732091BC03821741F0E09140
:10175000BB03F0E0EE55FC4F958F8093BB03FF91E8
:10176000EF919F918F912F910F900BBE0F900FBE15
:101770000F901F9018958081F2CF1F920F920FB695
:101780000F9211242F933F938F939F93AF93BF9307
:101790008091F7029091F802A091F902B091FA02BB
:1017A0003091F60223E0230F2D3758F50196A11D45
:1017B000B11D2093F6028093F7029093F802A09354
:1017C000F902B093FA028091FB029091FC02A09181
:1017D000FD02B091FE020196A11DB11D8093FB0296
:1017E0009093FC02A093FD02B093FE02BF91AF91D3
:1017F0009F918F913F912F910F900FBE0F901F904F
:10180000189526E8230F0296A11DB11DD2CFE5E061
:10181000F3E01382128248EE53E060E070E044830C
:1018200055836683778384E092E0918380832DECF7
:1018300030E0358724872CEC30E03787268728EC8A
:1018400030E0318B208B29EC30E0338B228B2AEC7B
:1018500030E0358B248B2EEC30E0378B268B118ECD
:10186000128E138E148EE2EAF3E013821282448306
:101870005583668377839183808385EC90E0958799
:10188000848784EC90E09787868780EC90E0918B4A
:10189000808B81EC90E0938B828B82EC90E0958B37
:1018A000848B86EC90E0978B868B118E128E138E34
:1018B000148EE7E5F4E04FEF5FEFBA014083518308
:1018C0006283738310861186128613868FEF99ECDC
:1018D000AAE9BBE3808B918BA28BB38B808F918F16
:1018E000A28FB38F80A391A3A2A3B3A380A791A734
:1018F000A2A7B3A780AB91ABA2ABB3AB40AF51AF44
:1019000062AF73AF8FEF90E0909398048093970449
:1019100040939B0450939C0460939D0470939E0499
:101920004093A3045093A4046093A5047093A60469
:101930001092AB041092AC0482E08093BC0410922D
:10194000BD041092BE041092BF041092C004109205
:10195000C1041092C2041092C3041092C5041092E4
:10196000C4041092C7041092C6041092AD04EFE3B1
:10197000F4E01382128286E192E0918380838DE00D
:1019800084838FEF85838CE086838BE087838AE076
:10199000808789E0818788E0828713861486158690
:1019A0001686178681E0D5C8CF93DF9300D000D08C
:1019B0001F921F92CDB7DEB7789484B5826084BD44
:1019C00084B5816084BD85B5826085BD85B5816043
:1019D00085BD80916E00816080936E0010928100C1
:1019E000809181008260809381008091810081607C
:1019F000809381008091800081608093800080913D
:101A0000B10084608093B1008091B00081608093C8
:101A1000B00080919100826080939100809191004C
:101A2000816080939100809190008160809390000C
:101A30008091A10082608093A1008091A1008160CB
:101A40008093A1008091A00081608093A00080918C
:101A50002101826080932101809121018160809326
:101A600021018091200181608093200180917A0082
:101A7000846080937A0080917A00826080937A00FB
:101A800080917A00816080937A0080917A008068EA
:101A900080937A001092C10082EA93E00E9435019F
:101AA00085E093E00E94350182E053D843D880E07E
:101AB000DED869E372E08FE394E038DA81E0D7D8CA
:101AC00061E472E08FE394E031DA3BD860ED77E0D7
:101AD00080E090E00E94CA042DD861E086E00E9478
:101AE0005D0461E085E00E945D0460E086E30E94A1
:101AF0005D0460E087E30E945D0460E088E30E948B
:101B00005D0460E084E00E945D0480E0B0D869E498
:101B100072E08FE394E00ADA14D881E0A8D810923A
:101B20000403109203031092020310920103109217
:101B300000031092FF028AE0A82EB12C65E572E046
:101B40008FE394E0F3D90E94A10586E30E948E04FE
:101B5000C0900303D0900403C80ED91ED092040392
:101B6000C092030387E30E948E04E0900103F0908B
:101B70000203E80EF91EF0920203E092010388E3EB
:101B80000E948E040091FF0210910003080F191F9C
:101B9000109300030093FF0268EC70E080E090E097
:101BA0000E94CA0421E0A21AB10841F62AE030E0FE
:101BB000C601B9016BD47093040360930303C7019A
:101BC000B90164D47093020360930103C801B901A1
:101BD0005DD4709300036093FF020E949A0581E038
:101BE00046D867E572E08FE394E0A0D987E00E94D1
:101BF0000804019701F561E086E00E94300461E08D
:101C000085E00E94300481E032D863E672E08FE321
:101C100094E08CD90E94A10587E00E9408040197F6
:101C2000D9F360E086E00E94300460E085E00E9425
:101C300030040E949A0586E30E948E04E09003031C
:101C4000F09004038E199F09181619060CF0CEC0E7
:101C500086E30E948E048E199F097C0187E30E940F
:101C60008E04A0900103B09002038A199B091816F4
:101C700019060CF0C1C087E30E948E048A199B09E3
:101C80005C0188E30E948E040091FF021091000322
:101C9000801B910B181619060CF0B4C088E30E9443
:101CA0008E04801B910B8C019701D7012CD46B0102
:101CB0007C019501D50127D4C60ED71EE81EF91E5A
:101CC0009801D80120D46C0D7D1D8E1D9F1D5BD207
:101CD00077D328D26B3271400CF49AC00E949A05D7
:101CE00080E00E94370664E772E08FE394E01ED93B
:101CF00081E00E9437066DE772E08FE394E016D929
:101D00000E94A10561E086E00E94300461E085E068
:101D10000E943004BE016F5F7F4FCE01059607D948
:101D200067E872E085E093E001D964E670E080E066
:101D300090E00E94CA0482E992E0E7D864E670E08D
:101D400080E090E00E94CA048EEA92E0DED866EC61
:101D500072E085E093E0EAD8CD80DE80EF80F88401
:101D600020E030E04AE754E4C701B6016FD18111A9
:101D700003C0C12CD12C760146E0C701B6010E94F8
:101D8000AE0662ED72E085E093E0D0D8C980DA80DB
:101D9000EB80FC8020E030E04AE754E4C701B60164
:101DA00055D1811103C0C12CD12C760146E0C70169
:101DB000B6010E94AE0664E670E080E090E00E940A
:101DC000CA040E94580664E670E080E090E00E9439
:101DD000CA046EE172E085E093E00E94490664E681
:101DE00070E080E090E00E94CA04FFCF86E30E948A
:101DF0008E04E81AF90A32CF87E30E948E04A81AEB
:101E0000B90A3FCF88E30E948E04081B190B4CCF00
:101E100084E00E940804019709F087C0BE016F5F4B
:101E20007F4FCE01059683D80E949A0580E00E94DC
:101E3000370660EE72E08FE394E078D881E00E948C
:101E400037066DE772E08FE394E070D80E94A10539
:101E500061E086E00E94300461E085E00E94300489
:101E600067E872E085E093E061D864E670E080E0C6
:101E700090E00E94CA0482E992E047D864E670E0EC
:101E800080E090E00E94CA0486EE92E03ED866ECC4
:101E900072E085E093E04AD8CD80DE80EF80F88460
:101EA00020E030E04AE754E4C701B601CFD0811109
:101EB00003C0C12CD12C760146E0C701B6010E94B7
:101EC000AE0662ED72E085E093E030D8C980DA803A
:101ED000EB80FC8020E030E04AE754E4C701B60123
:101EE000B5D0811103C0C12CD12C760146E0C701C9
:101EF000B6010E94AE0664E670E080E090E00E94C9
:101F0000CA040E94580664E670E080E090E00E94F7
:101F1000CA046EE172E085E093E00E94490664E63F
:101F200070E080E090E00E94CA0460E085E00E94DA
:101F300030040E9476035ACEFC0188279927E89442
:101F400021912032E9F3293010F02E30C8F32B32E2
:101F500039F02D3231F4689403C00BD0820F911DFB
:101F6000219120532A30C8F31EF4909581959F4FFC
:101F700008957AE0979F902D879F802D910D1124D1
:101F800008955058BB27AA270ED075C166D130F0EE
:101F90006BD120F031F49F3F11F41EF45BC10EF4BD
:101FA000E095E7FB51C1E92F77D180F3BA176207BB
:101FB00073078407950718F071F49EF58FC10EF42E
:101FC000E0950B2EBA2FA02D0B01B90190010C0149
:101FD000CA01A0011124FF27591B99F0593F50F461
:101FE000503E68F11A16F040A22F232F342F4427B9
:101FF000585FF3CF469537952795A795F0405395B1
:10200000C9F77EF41F16BA0B620B730B840BBAF080
:102010009150A1F0FF0FBB1F661F771F881FC2F7EB
:102020000EC0BA0F621F731F841F48F487957795FF
:102030006795B795F7959E3F08F0B3CF9395880FB6
:1020400008F09927EE0F979587950895D9D008F451
:1020500081E008950CD00FC107D140F0FED030F0E0
:1020600021F45F3F19F0F0C0511139C1F3C014D110
:1020700098F39923C9F35523B1F3951B550BBB274F
:10208000AA2762177307840738F09F5F5F4F220FFC
:10209000331F441FAA1FA9F333D00E2E3AF0E0E8F5
:1020A00030D091505040E695001CCAF729D0FE2F41
:1020B00027D0660F771F881FBB1F261737074807D3
:1020C000AB07B0E809F0BB0B802DBF01FF27935889
:1020D0005F4F2AF09E3F510568F0B6C000C15F3FD8
:1020E000ECF3983EDCF3869577956795B795F79571
:1020F0009F5FC9F7880F911D9695879597F9089569
:10210000E1E0660F771F881FBB1F62177307840704
:10211000BA0720F0621B730B840BBA0BEE1F88F713
:10212000E095089504D06894B111D9C00895BCD049
:1021300088F09F5790F0B92F9927B751A0F0D1F0B0
:10214000660F771F881F991F1AF0BA95C9F712C03A
:10215000B13081F0C3D0B1E00895C0C0672F782FAF
:102160008827B85F39F0B93FCCF3869577956795A6
:10217000B395D9F73EF490958095709561957F4F12
:102180008F4F9F4F0895E89409C097FB3EF49095B8
:102190008095709561957F4F8F4F9F4F9923A9F040
:1021A000F92F96E9BB279395F695879577956795CF
:1021B000B795F111F8CFFAF4BB0F11F460FF1BC013
:1021C0006F5F7F4F8F4F9F4F16C0882311F096E9A6
:1021D00011C0772321F09EE8872F762F05C0662354
:1021E00071F096E8862F70E060E02AF09A95660F0D
:1021F000771F881FDAF7880F9695879597F90895C6
:10220000990F0008550FAA0BE0E8FEEF1616170607
:10221000E807F907C0F012161306E407F50798F06F
:10222000621B730B840B950B39F40A2661F0232B88
:10223000242B252B21F408950A2609F4A140A69504
:102240008FEF811D811D089597F99F6780E870E0E9
:1022500060E008959FEF80EC089500240A9416161C
:10226000170618060906089500240A941216130684
:10227000140605060895092E0394000C11F4882312
:1022800052F0BB0F40F4BF2B11F460FF04C06F5F2E
:102290007F4F8F4F9F4F089557FD9058440F551F04
:1022A00059F05F3F71F04795880F97FB991F61F0D8
:1022B0009F3F79F087950895121613061406551F4F
:1022C000F2CF4695F1DF08C0161617061806991FBB
:1022D000F1CF86957105610508940895E894BB27B0
:1022E00066277727CB0197F908958ADF08F48FEFE7
:1022F00008950BD0C0CFB1DF28F0B6DF18F09523DA
:1023000009F0A2CFA7CF1124EACFC6DFA0F3959F93
:10231000D1F3950F50E0551F629FF001729FBB27CC
:10232000F00DB11D639FAA27F00DB11DAA1F649F78
:102330006627B00DA11D661F829F2227B00DA11D2B
:10234000621F739FB00DA11D621F839FA00D611DB1
:10235000221F749F3327A00D611D231F849F600DD2
:10236000211D822F762F6A2F11249F5750408AF00B
:10237000E1F088234AF0EE0FFF1FBB1F661F771F97
:10238000881F91505040A9F79E3F510570F05CCFD7
:10239000A6CF5F3FECF3983EDCF386957795679583
:1023A000B795F795E7959F5FC1F7FE2B880F911DB5
:1023B0009695879597F9089511F40EF44BCF42C086
:1023C00073DFD0F39923D9F3CEF39F57550B87FFD3
:1023D00047D00024A0E640EA900180585695979592
:1023E00028F4805C660F771F881F20F026173707B8
:1023F000480730F4621B730B840B202931294A2BC8
:10240000A69517940794202531254A2758F7660F7B
:10241000771F881F20F026173707480730F4620B14
:10242000730B840B200D311D411DA09581F7B9015F
:10243000842F9158880F969587950895E1DE880B33
:10244000990B08959F3F31F0915020F4879577952F
:102450006795B795880F911D9695879597F908957B
:1024600091505040660F771F881FD2F70895DB0107
:102470008F939F9363D0BF91AF91A29F800D911DC9
:10248000A39F900DB29F900D1124089597FB072EE6
:1024900016F4009406D077FD08D060D007FC05D074
:1024A0003EF4909581959F4F0895709561957F4F6B
:1024B0000895A1E21A2EAA1BBB1BFD010DC0AA1F85
:1024C000BB1FEE1FFF1FA217B307E407F50720F09D
:1024D000A21BB30BE40BF50B661F771F881F991F18
:1024E0001A9469F760957095809590959B01AC0161
:1024F000BD01CF010895EE0FFF1F881F8BBF07900E
:10250000F691E02D199405D0332312F48A1B9B0B0E
:1025100010C0A29FB001B39FC001A39F700D811D89
:102520001124911DB29F700D811D1124911D0895DC
:10253000F0DFB7FF0895821B930B0895EADFA59F94
:10254000900DB49F900DA49F800D911D11240895AE
:10255000B7FFF4CFF3DF821B930B0895AA1BBB1BBD
:1025600051E107C0AA1FBB1FA617B70710F0A61B93
:10257000B70B881F991F5A95A9F780959095BC01B4
:08258000CD010895F894FFCF8E
:10258800000000000B036D029A025703CB02A90258
:10259800BD020000000044066D02070506050D0A8D
:1025A800006E616E00696E66006F76660047505275
:1025B8004D4300475047474100426F6F74696E674B
:1025C8000053797374656D730043616C696272615D
:1025D80074696E67002E0043616C6962726174658C
:1025E800642100414C434F484F4C204445544543D7
:1025F800544544004163636964656E7400446574BE
:102608006563746564210041542B434D47463D3151
:102618000D004154202B20434D4753203D20222BB1
:102628003931373030333535343730332200416370
:10263800636964656E74212153617665204F7572F4
:1026480020536F756C004C61746974756465203D26
:102658002000204C6F6E676974756465203D20000A
:1026680050616E69630049206E6565642068656C19
:0626780070212121000089
:00000001FF
